{
	"contracts/SimpleStorage.sol": {
		"SimpleStorage": {
			"abi": [
				{
					"inputs": [
						{
							"internalType": "string",
							"name": "_name",
							"type": "string"
						},
						{
							"internalType": "uint256",
							"name": "_favoriteNumber",
							"type": "uint256"
						},
						{
							"internalType": "string",
							"name": "_favColor",
							"type": "string"
						},
						{
							"internalType": "string",
							"name": "_hobbies",
							"type": "string"
						}
					],
					"name": "addPerson",
					"outputs": [],
					"stateMutability": "nonpayable",
					"type": "function"
				},
				{
					"inputs": [
						{
							"internalType": "string",
							"name": "",
							"type": "string"
						}
					],
					"name": "nameToFavoriteNumber",
					"outputs": [
						{
							"internalType": "uint256",
							"name": "",
							"type": "uint256"
						}
					],
					"stateMutability": "view",
					"type": "function"
				},
				{
					"inputs": [
						{
							"internalType": "uint256",
							"name": "",
							"type": "uint256"
						}
					],
					"name": "people",
					"outputs": [
						{
							"internalType": "uint256",
							"name": "favoriteNumber",
							"type": "uint256"
						},
						{
							"internalType": "string",
							"name": "name",
							"type": "string"
						},
						{
							"internalType": "string",
							"name": "favColor",
							"type": "string"
						},
						{
							"internalType": "string",
							"name": "hobbies",
							"type": "string"
						}
					],
					"stateMutability": "view",
					"type": "function"
				},
				{
					"inputs": [],
					"name": "retrieve",
					"outputs": [
						{
							"internalType": "uint256",
							"name": "",
							"type": "uint256"
						}
					],
					"stateMutability": "view",
					"type": "function"
				},
				{
					"inputs": [
						{
							"internalType": "uint256",
							"name": "_favoriteNumber",
							"type": "uint256"
						}
					],
					"name": "store",
					"outputs": [],
					"stateMutability": "nonpayable",
					"type": "function"
				}
			],
			"devdoc": {
				"kind": "dev",
				"methods": {},
				"version": 1
			},
			"evm": {
				"assembly": "    /* \"contracts/SimpleStorage.sol\":57:1269  contract SimpleStorage {... */\n  mstore(0x40, 0x80)\n  callvalue\n  dup1\n  iszero\n  tag_1\n  jumpi\n  0x00\n  dup1\n  revert\ntag_1:\n  pop\n  dataSize(sub_0)\n  dup1\n  dataOffset(sub_0)\n  0x00\n  codecopy\n  0x00\n  return\nstop\n\nsub_0: assembly {\n        /* \"contracts/SimpleStorage.sol\":57:1269  contract SimpleStorage {... */\n      mstore(0x40, 0x80)\n      callvalue\n      dup1\n      iszero\n      tag_1\n      jumpi\n      0x00\n      dup1\n      revert\n    tag_1:\n      pop\n      jumpi(tag_2, lt(calldatasize, 0x04))\n      shr(0xe0, calldataload(0x00))\n      dup1\n      0x2e64cec1\n      eq\n      tag_3\n      jumpi\n      dup1\n      0x6057361d\n      eq\n      tag_4\n      jumpi\n      dup1\n      0x8bab8dd5\n      eq\n      tag_5\n      jumpi\n      dup1\n      0x9e7a13ad\n      eq\n      tag_6\n      jumpi\n      dup1\n      0x9f8c5108\n      eq\n      tag_7\n      jumpi\n    tag_2:\n      0x00\n      dup1\n      revert\n        /* \"contracts/SimpleStorage.sol\":692:779  function retrieve() public view returns(uint256) {... */\n    tag_3:\n      tag_8\n      tag_9\n      jump\t// in\n    tag_8:\n      mload(0x40)\n      tag_10\n      swap2\n      swap1\n      tag_11\n      jump\t// in\n    tag_10:\n      mload(0x40)\n      dup1\n      swap2\n      sub\n      swap1\n      return\n        /* \"contracts/SimpleStorage.sol\":500:686  function store(uint256 _favoriteNumber) public virtual {... */\n    tag_4:\n      tag_12\n      0x04\n      dup1\n      calldatasize\n      sub\n      dup2\n      add\n      swap1\n      tag_13\n      swap2\n      swap1\n      tag_14\n      jump\t// in\n    tag_13:\n      tag_15\n      jump\t// in\n    tag_12:\n      stop\n        /* \"contracts/SimpleStorage.sol\":269:323  mapping(string => uint256) public nameToFavoriteNumber */\n    tag_5:\n      tag_16\n      0x04\n      dup1\n      calldatasize\n      sub\n      dup2\n      add\n      swap1\n      tag_17\n      swap2\n      swap1\n      tag_18\n      jump\t// in\n    tag_17:\n      tag_19\n      jump\t// in\n    tag_16:\n      mload(0x40)\n      tag_20\n      swap2\n      swap1\n      tag_11\n      jump\t// in\n    tag_20:\n      mload(0x40)\n      dup1\n      swap2\n      sub\n      swap1\n      return\n        /* \"contracts/SimpleStorage.sol\":471:493  People[] public people */\n    tag_6:\n      tag_21\n      0x04\n      dup1\n      calldatasize\n      sub\n      dup2\n      add\n      swap1\n      tag_22\n      swap2\n      swap1\n      tag_14\n      jump\t// in\n    tag_22:\n      tag_23\n      jump\t// in\n    tag_21:\n      mload(0x40)\n      tag_24\n      swap5\n      swap4\n      swap3\n      swap2\n      swap1\n      tag_25\n      jump\t// in\n    tag_24:\n      mload(0x40)\n      dup1\n      swap2\n      sub\n      swap1\n      return\n        /* \"contracts/SimpleStorage.sol\":830:1216  function addPerson(string memory _name, uint256 _favoriteNumber, string memory _favColor, string memory _hobbies) public {... */\n    tag_7:\n      tag_26\n      0x04\n      dup1\n      calldatasize\n      sub\n      dup2\n      add\n      swap1\n      tag_27\n      swap2\n      swap1\n      tag_28\n      jump\t// in\n    tag_27:\n      tag_29\n      jump\t// in\n    tag_26:\n      stop\n        /* \"contracts/SimpleStorage.sol\":692:779  function retrieve() public view returns(uint256) {... */\n    tag_9:\n        /* \"contracts/SimpleStorage.sol\":732:739  uint256 */\n      0x00\n        /* \"contracts/SimpleStorage.sol\":758:772  favoriteNumber */\n      dup1\n      sload\n        /* \"contracts/SimpleStorage.sol\":751:772  return favoriteNumber */\n      swap1\n      pop\n        /* \"contracts/SimpleStorage.sol\":692:779  function retrieve() public view returns(uint256) {... */\n      swap1\n      jump\t// out\n        /* \"contracts/SimpleStorage.sol\":500:686  function store(uint256 _favoriteNumber) public virtual {... */\n    tag_15:\n        /* \"contracts/SimpleStorage.sol\":582:597  _favoriteNumber */\n      dup1\n        /* \"contracts/SimpleStorage.sol\":565:579  favoriteNumber */\n      0x00\n        /* \"contracts/SimpleStorage.sol\":565:597  favoriteNumber = _favoriteNumber */\n      dup2\n      swap1\n      sstore\n      pop\n        /* \"contracts/SimpleStorage.sol\":500:686  function store(uint256 _favoriteNumber) public virtual {... */\n      pop\n      jump\t// out\n        /* \"contracts/SimpleStorage.sol\":269:323  mapping(string => uint256) public nameToFavoriteNumber */\n    tag_19:\n      0x01\n      dup2\n      dup1\n      mload\n      0x20\n      dup2\n      add\n      dup3\n      add\n      dup1\n      mload\n      dup5\n      dup3\n      mstore\n      0x20\n      dup4\n      add\n      0x20\n      dup6\n      add\n      keccak256\n      dup2\n      dup4\n      mstore\n      dup1\n      swap6\n      pop\n      pop\n      pop\n      pop\n      pop\n      pop\n      0x00\n      swap2\n      pop\n      swap1\n      pop\n      sload\n      dup2\n      jump\t// out\n        /* \"contracts/SimpleStorage.sol\":471:493  People[] public people */\n    tag_23:\n      0x02\n      dup2\n      dup2\n      sload\n      dup2\n      lt\n      tag_32\n      jumpi\n      0x00\n      dup1\n      revert\n    tag_32:\n      swap1\n      0x00\n      mstore\n      keccak256(0x00, 0x20)\n      swap1\n      0x04\n      mul\n      add\n      0x00\n      swap2\n      pop\n      swap1\n      pop\n      dup1\n      0x00\n      add\n      sload\n      swap1\n      dup1\n      0x01\n      add\n      dup1\n      sload\n      tag_34\n      swap1\n      tag_35\n      jump\t// in\n    tag_34:\n      dup1\n      0x1f\n      add\n      0x20\n      dup1\n      swap2\n      div\n      mul\n      0x20\n      add\n      mload(0x40)\n      swap1\n      dup2\n      add\n      0x40\n      mstore\n      dup1\n      swap3\n      swap2\n      swap1\n      dup2\n      dup2\n      mstore\n      0x20\n      add\n      dup3\n      dup1\n      sload\n      tag_36\n      swap1\n      tag_35\n      jump\t// in\n    tag_36:\n      dup1\n      iszero\n      tag_37\n      jumpi\n      dup1\n      0x1f\n      lt\n      tag_38\n      jumpi\n      0x0100\n      dup1\n      dup4\n      sload\n      div\n      mul\n      dup4\n      mstore\n      swap2\n      0x20\n      add\n      swap2\n      jump(tag_37)\n    tag_38:\n      dup3\n      add\n      swap2\n      swap1\n      0x00\n      mstore\n      keccak256(0x00, 0x20)\n      swap1\n    tag_39:\n      dup2\n      sload\n      dup2\n      mstore\n      swap1\n      0x01\n      add\n      swap1\n      0x20\n      add\n      dup1\n      dup4\n      gt\n      tag_39\n      jumpi\n      dup3\n      swap1\n      sub\n      0x1f\n      and\n      dup3\n      add\n      swap2\n    tag_37:\n      pop\n      pop\n      pop\n      pop\n      pop\n      swap1\n      dup1\n      0x02\n      add\n      dup1\n      sload\n      tag_40\n      swap1\n      tag_35\n      jump\t// in\n    tag_40:\n      dup1\n      0x1f\n      add\n      0x20\n      dup1\n      swap2\n      div\n      mul\n      0x20\n      add\n      mload(0x40)\n      swap1\n      dup2\n      add\n      0x40\n      mstore\n      dup1\n      swap3\n      swap2\n      swap1\n      dup2\n      dup2\n      mstore\n      0x20\n      add\n      dup3\n      dup1\n      sload\n      tag_41\n      swap1\n      tag_35\n      jump\t// in\n    tag_41:\n      dup1\n      iszero\n      tag_42\n      jumpi\n      dup1\n      0x1f\n      lt\n      tag_43\n      jumpi\n      0x0100\n      dup1\n      dup4\n      sload\n      div\n      mul\n      dup4\n      mstore\n      swap2\n      0x20\n      add\n      swap2\n      jump(tag_42)\n    tag_43:\n      dup3\n      add\n      swap2\n      swap1\n      0x00\n      mstore\n      keccak256(0x00, 0x20)\n      swap1\n    tag_44:\n      dup2\n      sload\n      dup2\n      mstore\n      swap1\n      0x01\n      add\n      swap1\n      0x20\n      add\n      dup1\n      dup4\n      gt\n      tag_44\n      jumpi\n      dup3\n      swap1\n      sub\n      0x1f\n      and\n      dup3\n      add\n      swap2\n    tag_42:\n      pop\n      pop\n      pop\n      pop\n      pop\n      swap1\n      dup1\n      0x03\n      add\n      dup1\n      sload\n      tag_45\n      swap1\n      tag_35\n      jump\t// in\n    tag_45:\n      dup1\n      0x1f\n      add\n      0x20\n      dup1\n      swap2\n      div\n      mul\n      0x20\n      add\n      mload(0x40)\n      swap1\n      dup2\n      add\n      0x40\n      mstore\n      dup1\n      swap3\n      swap2\n      swap1\n      dup2\n      dup2\n      mstore\n      0x20\n      add\n      dup3\n      dup1\n      sload\n      tag_46\n      swap1\n      tag_35\n      jump\t// in\n    tag_46:\n      dup1\n      iszero\n      tag_47\n      jumpi\n      dup1\n      0x1f\n      lt\n      tag_48\n      jumpi\n      0x0100\n      dup1\n      dup4\n      sload\n      div\n      mul\n      dup4\n      mstore\n      swap2\n      0x20\n      add\n      swap2\n      jump(tag_47)\n    tag_48:\n      dup3\n      add\n      swap2\n      swap1\n      0x00\n      mstore\n      keccak256(0x00, 0x20)\n      swap1\n    tag_49:\n      dup2\n      sload\n      dup2\n      mstore\n      swap1\n      0x01\n      add\n      swap1\n      0x20\n      add\n      dup1\n      dup4\n      gt\n      tag_49\n      jumpi\n      dup3\n      swap1\n      sub\n      0x1f\n      and\n      dup3\n      add\n      swap2\n    tag_47:\n      pop\n      pop\n      pop\n      pop\n      pop\n      swap1\n      pop\n      dup5\n      jump\t// out\n        /* \"contracts/SimpleStorage.sol\":830:1216  function addPerson(string memory _name, uint256 _favoriteNumber, string memory _favColor, string memory _hobbies) public {... */\n    tag_29:\n        /* \"contracts/SimpleStorage.sol\":1090:1096  people */\n      0x02\n        /* \"contracts/SimpleStorage.sol\":1102:1153  People(_favoriteNumber, _name, _favColor, _hobbies) */\n      mload(0x40)\n      dup1\n      0x80\n      add\n      0x40\n      mstore\n      dup1\n        /* \"contracts/SimpleStorage.sol\":1109:1124  _favoriteNumber */\n      dup6\n        /* \"contracts/SimpleStorage.sol\":1102:1153  People(_favoriteNumber, _name, _favColor, _hobbies) */\n      dup2\n      mstore\n      0x20\n      add\n        /* \"contracts/SimpleStorage.sol\":1126:1131  _name */\n      dup7\n        /* \"contracts/SimpleStorage.sol\":1102:1153  People(_favoriteNumber, _name, _favColor, _hobbies) */\n      dup2\n      mstore\n      0x20\n      add\n        /* \"contracts/SimpleStorage.sol\":1133:1142  _favColor */\n      dup5\n        /* \"contracts/SimpleStorage.sol\":1102:1153  People(_favoriteNumber, _name, _favColor, _hobbies) */\n      dup2\n      mstore\n      0x20\n      add\n        /* \"contracts/SimpleStorage.sol\":1144:1152  _hobbies */\n      dup4\n        /* \"contracts/SimpleStorage.sol\":1102:1153  People(_favoriteNumber, _name, _favColor, _hobbies) */\n      dup2\n      mstore\n      pop\n        /* \"contracts/SimpleStorage.sol\":1090:1154  people.push(People(_favoriteNumber, _name, _favColor, _hobbies)) */\n      swap1\n      dup1\n      0x01\n      dup2\n      sload\n      add\n      dup1\n      dup3\n      sstore\n      dup1\n      swap2\n      pop\n      pop\n      0x01\n      swap1\n      sub\n      swap1\n      0x00\n      mstore\n      keccak256(0x00, 0x20)\n      swap1\n      0x04\n      mul\n      add\n      0x00\n      swap1\n      swap2\n      swap1\n      swap2\n      swap1\n      swap2\n      pop\n      0x00\n      dup3\n      add\n      mload\n      dup2\n      0x00\n      add\n      sstore\n      0x20\n      dup3\n      add\n      mload\n      dup2\n      0x01\n      add\n      swap1\n      dup2\n      tag_52\n      swap2\n      swap1\n      tag_53\n      jump\t// in\n    tag_52:\n      pop\n      0x40\n      dup3\n      add\n      mload\n      dup2\n      0x02\n      add\n      swap1\n      dup2\n      tag_54\n      swap2\n      swap1\n      tag_53\n      jump\t// in\n    tag_54:\n      pop\n      0x60\n      dup3\n      add\n      mload\n      dup2\n      0x03\n      add\n      swap1\n      dup2\n      tag_55\n      swap2\n      swap1\n      tag_53\n      jump\t// in\n    tag_55:\n      pop\n      pop\n      pop\n        /* \"contracts/SimpleStorage.sol\":1194:1209  _favoriteNumber */\n      dup3\n        /* \"contracts/SimpleStorage.sol\":1164:1184  nameToFavoriteNumber */\n      0x01\n        /* \"contracts/SimpleStorage.sol\":1185:1190  _name */\n      dup6\n        /* \"contracts/SimpleStorage.sol\":1164:1191  nameToFavoriteNumber[_name] */\n      mload(0x40)\n      tag_56\n      swap2\n      swap1\n      tag_57\n      jump\t// in\n    tag_56:\n      swap1\n      dup2\n      mstore\n      0x20\n      add\n      mload(0x40)\n      dup1\n      swap2\n      sub\n      swap1\n      keccak256\n        /* \"contracts/SimpleStorage.sol\":1164:1209  nameToFavoriteNumber[_name] = _favoriteNumber */\n      dup2\n      swap1\n      sstore\n      pop\n        /* \"contracts/SimpleStorage.sol\":830:1216  function addPerson(string memory _name, uint256 _favoriteNumber, string memory _favColor, string memory _hobbies) public {... */\n      pop\n      pop\n      pop\n      pop\n      jump\t// out\n        /* \"#utility.yul\":7:84   */\n    tag_58:\n        /* \"#utility.yul\":44:51   */\n      0x00\n        /* \"#utility.yul\":73:78   */\n      dup2\n        /* \"#utility.yul\":62:78   */\n      swap1\n      pop\n        /* \"#utility.yul\":7:84   */\n      swap2\n      swap1\n      pop\n      jump\t// out\n        /* \"#utility.yul\":90:208   */\n    tag_59:\n        /* \"#utility.yul\":177:201   */\n      tag_100\n        /* \"#utility.yul\":195:200   */\n      dup2\n        /* \"#utility.yul\":177:201   */\n      tag_58\n      jump\t// in\n    tag_100:\n        /* \"#utility.yul\":172:175   */\n      dup3\n        /* \"#utility.yul\":165:202   */\n      mstore\n        /* \"#utility.yul\":90:208   */\n      pop\n      pop\n      jump\t// out\n        /* \"#utility.yul\":214:436   */\n    tag_11:\n        /* \"#utility.yul\":307:311   */\n      0x00\n        /* \"#utility.yul\":345:347   */\n      0x20\n        /* \"#utility.yul\":334:343   */\n      dup3\n        /* \"#utility.yul\":330:348   */\n      add\n        /* \"#utility.yul\":322:348   */\n      swap1\n      pop\n        /* \"#utility.yul\":358:429   */\n      tag_102\n        /* \"#utility.yul\":426:427   */\n      0x00\n        /* \"#utility.yul\":415:424   */\n      dup4\n        /* \"#utility.yul\":411:428   */\n      add\n        /* \"#utility.yul\":402:408   */\n      dup5\n        /* \"#utility.yul\":358:429   */\n      tag_59\n      jump\t// in\n    tag_102:\n        /* \"#utility.yul\":214:436   */\n      swap3\n      swap2\n      pop\n      pop\n      jump\t// out\n        /* \"#utility.yul\":442:517   */\n    tag_60:\n        /* \"#utility.yul\":475:481   */\n      0x00\n        /* \"#utility.yul\":508:510   */\n      0x40\n        /* \"#utility.yul\":502:511   */\n      mload\n        /* \"#utility.yul\":492:511   */\n      swap1\n      pop\n        /* \"#utility.yul\":442:517   */\n      swap1\n      jump\t// out\n        /* \"#utility.yul\":523:640   */\n    tag_61:\n        /* \"#utility.yul\":632:633   */\n      0x00\n        /* \"#utility.yul\":629:630   */\n      dup1\n        /* \"#utility.yul\":622:634   */\n      revert\n        /* \"#utility.yul\":646:763   */\n    tag_62:\n        /* \"#utility.yul\":755:756   */\n      0x00\n        /* \"#utility.yul\":752:753   */\n      dup1\n        /* \"#utility.yul\":745:757   */\n      revert\n        /* \"#utility.yul\":769:891   */\n    tag_63:\n        /* \"#utility.yul\":842:866   */\n      tag_107\n        /* \"#utility.yul\":860:865   */\n      dup2\n        /* \"#utility.yul\":842:866   */\n      tag_58\n      jump\t// in\n    tag_107:\n        /* \"#utility.yul\":835:840   */\n      dup2\n        /* \"#utility.yul\":832:867   */\n      eq\n        /* \"#utility.yul\":822:885   */\n      tag_108\n      jumpi\n        /* \"#utility.yul\":881:882   */\n      0x00\n        /* \"#utility.yul\":878:879   */\n      dup1\n        /* \"#utility.yul\":871:883   */\n      revert\n        /* \"#utility.yul\":822:885   */\n    tag_108:\n        /* \"#utility.yul\":769:891   */\n      pop\n      jump\t// out\n        /* \"#utility.yul\":897:1036   */\n    tag_64:\n        /* \"#utility.yul\":943:948   */\n      0x00\n        /* \"#utility.yul\":981:987   */\n      dup2\n        /* \"#utility.yul\":968:988   */\n      calldataload\n        /* \"#utility.yul\":959:988   */\n      swap1\n      pop\n        /* \"#utility.yul\":997:1030   */\n      tag_110\n        /* \"#utility.yul\":1024:1029   */\n      dup2\n        /* \"#utility.yul\":997:1030   */\n      tag_63\n      jump\t// in\n    tag_110:\n        /* \"#utility.yul\":897:1036   */\n      swap3\n      swap2\n      pop\n      pop\n      jump\t// out\n        /* \"#utility.yul\":1042:1371   */\n    tag_14:\n        /* \"#utility.yul\":1101:1107   */\n      0x00\n        /* \"#utility.yul\":1150:1152   */\n      0x20\n        /* \"#utility.yul\":1138:1147   */\n      dup3\n        /* \"#utility.yul\":1129:1136   */\n      dup5\n        /* \"#utility.yul\":1125:1148   */\n      sub\n        /* \"#utility.yul\":1121:1153   */\n      slt\n        /* \"#utility.yul\":1118:1237   */\n      iszero\n      tag_112\n      jumpi\n        /* \"#utility.yul\":1156:1235   */\n      tag_113\n      tag_61\n      jump\t// in\n    tag_113:\n        /* \"#utility.yul\":1118:1237   */\n    tag_112:\n        /* \"#utility.yul\":1276:1277   */\n      0x00\n        /* \"#utility.yul\":1301:1354   */\n      tag_114\n        /* \"#utility.yul\":1346:1353   */\n      dup5\n        /* \"#utility.yul\":1337:1343   */\n      dup3\n        /* \"#utility.yul\":1326:1335   */\n      dup6\n        /* \"#utility.yul\":1322:1344   */\n      add\n        /* \"#utility.yul\":1301:1354   */\n      tag_64\n      jump\t// in\n    tag_114:\n        /* \"#utility.yul\":1291:1354   */\n      swap2\n      pop\n        /* \"#utility.yul\":1247:1364   */\n      pop\n        /* \"#utility.yul\":1042:1371   */\n      swap3\n      swap2\n      pop\n      pop\n      jump\t// out\n        /* \"#utility.yul\":1377:1494   */\n    tag_65:\n        /* \"#utility.yul\":1486:1487   */\n      0x00\n        /* \"#utility.yul\":1483:1484   */\n      dup1\n        /* \"#utility.yul\":1476:1488   */\n      revert\n        /* \"#utility.yul\":1500:1617   */\n    tag_66:\n        /* \"#utility.yul\":1609:1610   */\n      0x00\n        /* \"#utility.yul\":1606:1607   */\n      dup1\n        /* \"#utility.yul\":1599:1611   */\n      revert\n        /* \"#utility.yul\":1623:1725   */\n    tag_67:\n        /* \"#utility.yul\":1664:1670   */\n      0x00\n        /* \"#utility.yul\":1715:1717   */\n      0x1f\n        /* \"#utility.yul\":1711:1718   */\n      not\n        /* \"#utility.yul\":1706:1708   */\n      0x1f\n        /* \"#utility.yul\":1699:1704   */\n      dup4\n        /* \"#utility.yul\":1695:1709   */\n      add\n        /* \"#utility.yul\":1691:1719   */\n      and\n        /* \"#utility.yul\":1681:1719   */\n      swap1\n      pop\n        /* \"#utility.yul\":1623:1725   */\n      swap2\n      swap1\n      pop\n      jump\t// out\n        /* \"#utility.yul\":1731:1911   */\n    tag_68:\n        /* \"#utility.yul\":1779:1856   */\n      0x4e487b7100000000000000000000000000000000000000000000000000000000\n        /* \"#utility.yul\":1776:1777   */\n      0x00\n        /* \"#utility.yul\":1769:1857   */\n      mstore\n        /* \"#utility.yul\":1876:1880   */\n      0x41\n        /* \"#utility.yul\":1873:1874   */\n      0x04\n        /* \"#utility.yul\":1866:1881   */\n      mstore\n        /* \"#utility.yul\":1900:1904   */\n      0x24\n        /* \"#utility.yul\":1897:1898   */\n      0x00\n        /* \"#utility.yul\":1890:1905   */\n      revert\n        /* \"#utility.yul\":1917:2198   */\n    tag_69:\n        /* \"#utility.yul\":2000:2027   */\n      tag_120\n        /* \"#utility.yul\":2022:2026   */\n      dup3\n        /* \"#utility.yul\":2000:2027   */\n      tag_67\n      jump\t// in\n    tag_120:\n        /* \"#utility.yul\":1992:1998   */\n      dup2\n        /* \"#utility.yul\":1988:2028   */\n      add\n        /* \"#utility.yul\":2130:2136   */\n      dup2\n        /* \"#utility.yul\":2118:2128   */\n      dup2\n        /* \"#utility.yul\":2115:2137   */\n      lt\n        /* \"#utility.yul\":2094:2112   */\n      0xffffffffffffffff\n        /* \"#utility.yul\":2082:2092   */\n      dup3\n        /* \"#utility.yul\":2079:2113   */\n      gt\n        /* \"#utility.yul\":2076:2138   */\n      or\n        /* \"#utility.yul\":2073:2161   */\n      iszero\n      tag_121\n      jumpi\n        /* \"#utility.yul\":2141:2159   */\n      tag_122\n      tag_68\n      jump\t// in\n    tag_122:\n        /* \"#utility.yul\":2073:2161   */\n    tag_121:\n        /* \"#utility.yul\":2181:2191   */\n      dup1\n        /* \"#utility.yul\":2177:2179   */\n      0x40\n        /* \"#utility.yul\":2170:2192   */\n      mstore\n        /* \"#utility.yul\":1960:2198   */\n      pop\n        /* \"#utility.yul\":1917:2198   */\n      pop\n      pop\n      jump\t// out\n        /* \"#utility.yul\":2204:2333   */\n    tag_70:\n        /* \"#utility.yul\":2238:2244   */\n      0x00\n        /* \"#utility.yul\":2265:2285   */\n      tag_124\n      tag_60\n      jump\t// in\n    tag_124:\n        /* \"#utility.yul\":2255:2285   */\n      swap1\n      pop\n        /* \"#utility.yul\":2294:2327   */\n      tag_125\n        /* \"#utility.yul\":2322:2326   */\n      dup3\n        /* \"#utility.yul\":2314:2320   */\n      dup3\n        /* \"#utility.yul\":2294:2327   */\n      tag_69\n      jump\t// in\n    tag_125:\n        /* \"#utility.yul\":2204:2333   */\n      swap2\n      swap1\n      pop\n      jump\t// out\n        /* \"#utility.yul\":2339:2647   */\n    tag_71:\n        /* \"#utility.yul\":2401:2405   */\n      0x00\n        /* \"#utility.yul\":2491:2509   */\n      0xffffffffffffffff\n        /* \"#utility.yul\":2483:2489   */\n      dup3\n        /* \"#utility.yul\":2480:2510   */\n      gt\n        /* \"#utility.yul\":2477:2533   */\n      iszero\n      tag_127\n      jumpi\n        /* \"#utility.yul\":2513:2531   */\n      tag_128\n      tag_68\n      jump\t// in\n    tag_128:\n        /* \"#utility.yul\":2477:2533   */\n    tag_127:\n        /* \"#utility.yul\":2551:2580   */\n      tag_129\n        /* \"#utility.yul\":2573:2579   */\n      dup3\n        /* \"#utility.yul\":2551:2580   */\n      tag_67\n      jump\t// in\n    tag_129:\n        /* \"#utility.yul\":2543:2580   */\n      swap1\n      pop\n        /* \"#utility.yul\":2635:2639   */\n      0x20\n        /* \"#utility.yul\":2629:2633   */\n      dup2\n        /* \"#utility.yul\":2625:2640   */\n      add\n        /* \"#utility.yul\":2617:2640   */\n      swap1\n      pop\n        /* \"#utility.yul\":2339:2647   */\n      swap2\n      swap1\n      pop\n      jump\t// out\n        /* \"#utility.yul\":2653:2799   */\n    tag_72:\n        /* \"#utility.yul\":2750:2756   */\n      dup3\n        /* \"#utility.yul\":2745:2748   */\n      dup2\n        /* \"#utility.yul\":2740:2743   */\n      dup4\n        /* \"#utility.yul\":2727:2757   */\n      calldatacopy\n        /* \"#utility.yul\":2791:2792   */\n      0x00\n        /* \"#utility.yul\":2782:2788   */\n      dup4\n        /* \"#utility.yul\":2777:2780   */\n      dup4\n        /* \"#utility.yul\":2773:2789   */\n      add\n        /* \"#utility.yul\":2766:2793   */\n      mstore\n        /* \"#utility.yul\":2653:2799   */\n      pop\n      pop\n      pop\n      jump\t// out\n        /* \"#utility.yul\":2805:3230   */\n    tag_73:\n        /* \"#utility.yul\":2883:2888   */\n      0x00\n        /* \"#utility.yul\":2908:2974   */\n      tag_132\n        /* \"#utility.yul\":2924:2973   */\n      tag_133\n        /* \"#utility.yul\":2966:2972   */\n      dup5\n        /* \"#utility.yul\":2924:2973   */\n      tag_71\n      jump\t// in\n    tag_133:\n        /* \"#utility.yul\":2908:2974   */\n      tag_70\n      jump\t// in\n    tag_132:\n        /* \"#utility.yul\":2899:2974   */\n      swap1\n      pop\n        /* \"#utility.yul\":2997:3003   */\n      dup3\n        /* \"#utility.yul\":2990:2995   */\n      dup2\n        /* \"#utility.yul\":2983:3004   */\n      mstore\n        /* \"#utility.yul\":3035:3039   */\n      0x20\n        /* \"#utility.yul\":3028:3033   */\n      dup2\n        /* \"#utility.yul\":3024:3040   */\n      add\n        /* \"#utility.yul\":3073:3076   */\n      dup5\n        /* \"#utility.yul\":3064:3070   */\n      dup5\n        /* \"#utility.yul\":3059:3062   */\n      dup5\n        /* \"#utility.yul\":3055:3071   */\n      add\n        /* \"#utility.yul\":3052:3077   */\n      gt\n        /* \"#utility.yul\":3049:3161   */\n      iszero\n      tag_134\n      jumpi\n        /* \"#utility.yul\":3080:3159   */\n      tag_135\n      tag_66\n      jump\t// in\n    tag_135:\n        /* \"#utility.yul\":3049:3161   */\n    tag_134:\n        /* \"#utility.yul\":3170:3224   */\n      tag_136\n        /* \"#utility.yul\":3217:3223   */\n      dup5\n        /* \"#utility.yul\":3212:3215   */\n      dup3\n        /* \"#utility.yul\":3207:3210   */\n      dup6\n        /* \"#utility.yul\":3170:3224   */\n      tag_72\n      jump\t// in\n    tag_136:\n        /* \"#utility.yul\":2889:3230   */\n      pop\n        /* \"#utility.yul\":2805:3230   */\n      swap4\n      swap3\n      pop\n      pop\n      pop\n      jump\t// out\n        /* \"#utility.yul\":3250:3590   */\n    tag_74:\n        /* \"#utility.yul\":3306:3311   */\n      0x00\n        /* \"#utility.yul\":3355:3358   */\n      dup3\n        /* \"#utility.yul\":3348:3352   */\n      0x1f\n        /* \"#utility.yul\":3340:3346   */\n      dup4\n        /* \"#utility.yul\":3336:3353   */\n      add\n        /* \"#utility.yul\":3332:3359   */\n      slt\n        /* \"#utility.yul\":3322:3444   */\n      tag_138\n      jumpi\n        /* \"#utility.yul\":3363:3442   */\n      tag_139\n      tag_65\n      jump\t// in\n    tag_139:\n        /* \"#utility.yul\":3322:3444   */\n    tag_138:\n        /* \"#utility.yul\":3480:3486   */\n      dup2\n        /* \"#utility.yul\":3467:3487   */\n      calldataload\n        /* \"#utility.yul\":3505:3584   */\n      tag_140\n        /* \"#utility.yul\":3580:3583   */\n      dup5\n        /* \"#utility.yul\":3572:3578   */\n      dup3\n        /* \"#utility.yul\":3565:3569   */\n      0x20\n        /* \"#utility.yul\":3557:3563   */\n      dup7\n        /* \"#utility.yul\":3553:3570   */\n      add\n        /* \"#utility.yul\":3505:3584   */\n      tag_73\n      jump\t// in\n    tag_140:\n        /* \"#utility.yul\":3496:3584   */\n      swap2\n      pop\n        /* \"#utility.yul\":3312:3590   */\n      pop\n        /* \"#utility.yul\":3250:3590   */\n      swap3\n      swap2\n      pop\n      pop\n      jump\t// out\n        /* \"#utility.yul\":3596:4105   */\n    tag_18:\n        /* \"#utility.yul\":3665:3671   */\n      0x00\n        /* \"#utility.yul\":3714:3716   */\n      0x20\n        /* \"#utility.yul\":3702:3711   */\n      dup3\n        /* \"#utility.yul\":3693:3700   */\n      dup5\n        /* \"#utility.yul\":3689:3712   */\n      sub\n        /* \"#utility.yul\":3685:3717   */\n      slt\n        /* \"#utility.yul\":3682:3801   */\n      iszero\n      tag_142\n      jumpi\n        /* \"#utility.yul\":3720:3799   */\n      tag_143\n      tag_61\n      jump\t// in\n    tag_143:\n        /* \"#utility.yul\":3682:3801   */\n    tag_142:\n        /* \"#utility.yul\":3868:3869   */\n      0x00\n        /* \"#utility.yul\":3857:3866   */\n      dup3\n        /* \"#utility.yul\":3853:3870   */\n      add\n        /* \"#utility.yul\":3840:3871   */\n      calldataload\n        /* \"#utility.yul\":3898:3916   */\n      0xffffffffffffffff\n        /* \"#utility.yul\":3890:3896   */\n      dup2\n        /* \"#utility.yul\":3887:3917   */\n      gt\n        /* \"#utility.yul\":3884:4001   */\n      iszero\n      tag_144\n      jumpi\n        /* \"#utility.yul\":3920:3999   */\n      tag_145\n      tag_62\n      jump\t// in\n    tag_145:\n        /* \"#utility.yul\":3884:4001   */\n    tag_144:\n        /* \"#utility.yul\":4025:4088   */\n      tag_146\n        /* \"#utility.yul\":4080:4087   */\n      dup5\n        /* \"#utility.yul\":4071:4077   */\n      dup3\n        /* \"#utility.yul\":4060:4069   */\n      dup6\n        /* \"#utility.yul\":4056:4078   */\n      add\n        /* \"#utility.yul\":4025:4088   */\n      tag_74\n      jump\t// in\n    tag_146:\n        /* \"#utility.yul\":4015:4088   */\n      swap2\n      pop\n        /* \"#utility.yul\":3811:4098   */\n      pop\n        /* \"#utility.yul\":3596:4105   */\n      swap3\n      swap2\n      pop\n      pop\n      jump\t// out\n        /* \"#utility.yul\":4111:4210   */\n    tag_75:\n        /* \"#utility.yul\":4163:4169   */\n      0x00\n        /* \"#utility.yul\":4197:4202   */\n      dup2\n        /* \"#utility.yul\":4191:4203   */\n      mload\n        /* \"#utility.yul\":4181:4203   */\n      swap1\n      pop\n        /* \"#utility.yul\":4111:4210   */\n      swap2\n      swap1\n      pop\n      jump\t// out\n        /* \"#utility.yul\":4216:4385   */\n    tag_76:\n        /* \"#utility.yul\":4300:4311   */\n      0x00\n        /* \"#utility.yul\":4334:4340   */\n      dup3\n        /* \"#utility.yul\":4329:4332   */\n      dup3\n        /* \"#utility.yul\":4322:4341   */\n      mstore\n        /* \"#utility.yul\":4374:4378   */\n      0x20\n        /* \"#utility.yul\":4369:4372   */\n      dup3\n        /* \"#utility.yul\":4365:4379   */\n      add\n        /* \"#utility.yul\":4350:4379   */\n      swap1\n      pop\n        /* \"#utility.yul\":4216:4385   */\n      swap3\n      swap2\n      pop\n      pop\n      jump\t// out\n        /* \"#utility.yul\":4391:4637   */\n    tag_77:\n        /* \"#utility.yul\":4472:4473   */\n      0x00\n        /* \"#utility.yul\":4482:4595   */\n    tag_150:\n        /* \"#utility.yul\":4496:4502   */\n      dup4\n        /* \"#utility.yul\":4493:4494   */\n      dup2\n        /* \"#utility.yul\":4490:4503   */\n      lt\n        /* \"#utility.yul\":4482:4595   */\n      iszero\n      tag_152\n      jumpi\n        /* \"#utility.yul\":4581:4582   */\n      dup1\n        /* \"#utility.yul\":4576:4579   */\n      dup3\n        /* \"#utility.yul\":4572:4583   */\n      add\n        /* \"#utility.yul\":4566:4584   */\n      mload\n        /* \"#utility.yul\":4562:4563   */\n      dup2\n        /* \"#utility.yul\":4557:4560   */\n      dup5\n        /* \"#utility.yul\":4553:4564   */\n      add\n        /* \"#utility.yul\":4546:4585   */\n      mstore\n        /* \"#utility.yul\":4518:4520   */\n      0x20\n        /* \"#utility.yul\":4515:4516   */\n      dup2\n        /* \"#utility.yul\":4511:4521   */\n      add\n        /* \"#utility.yul\":4506:4521   */\n      swap1\n      pop\n        /* \"#utility.yul\":4482:4595   */\n      jump(tag_150)\n    tag_152:\n        /* \"#utility.yul\":4629:4630   */\n      0x00\n        /* \"#utility.yul\":4620:4626   */\n      dup5\n        /* \"#utility.yul\":4615:4618   */\n      dup5\n        /* \"#utility.yul\":4611:4627   */\n      add\n        /* \"#utility.yul\":4604:4631   */\n      mstore\n        /* \"#utility.yul\":4453:4637   */\n      pop\n        /* \"#utility.yul\":4391:4637   */\n      pop\n      pop\n      pop\n      jump\t// out\n        /* \"#utility.yul\":4643:5020   */\n    tag_78:\n        /* \"#utility.yul\":4731:4734   */\n      0x00\n        /* \"#utility.yul\":4759:4798   */\n      tag_154\n        /* \"#utility.yul\":4792:4797   */\n      dup3\n        /* \"#utility.yul\":4759:4798   */\n      tag_75\n      jump\t// in\n    tag_154:\n        /* \"#utility.yul\":4814:4885   */\n      tag_155\n        /* \"#utility.yul\":4878:4884   */\n      dup2\n        /* \"#utility.yul\":4873:4876   */\n      dup6\n        /* \"#utility.yul\":4814:4885   */\n      tag_76\n      jump\t// in\n    tag_155:\n        /* \"#utility.yul\":4807:4885   */\n      swap4\n      pop\n        /* \"#utility.yul\":4894:4959   */\n      tag_156\n        /* \"#utility.yul\":4952:4958   */\n      dup2\n        /* \"#utility.yul\":4947:4950   */\n      dup6\n        /* \"#utility.yul\":4940:4944   */\n      0x20\n        /* \"#utility.yul\":4933:4938   */\n      dup7\n        /* \"#utility.yul\":4929:4945   */\n      add\n        /* \"#utility.yul\":4894:4959   */\n      tag_77\n      jump\t// in\n    tag_156:\n        /* \"#utility.yul\":4984:5013   */\n      tag_157\n        /* \"#utility.yul\":5006:5012   */\n      dup2\n        /* \"#utility.yul\":4984:5013   */\n      tag_67\n      jump\t// in\n    tag_157:\n        /* \"#utility.yul\":4979:4982   */\n      dup5\n        /* \"#utility.yul\":4975:5014   */\n      add\n        /* \"#utility.yul\":4968:5014   */\n      swap2\n      pop\n        /* \"#utility.yul\":4735:5020   */\n      pop\n        /* \"#utility.yul\":4643:5020   */\n      swap3\n      swap2\n      pop\n      pop\n      jump\t// out\n        /* \"#utility.yul\":5026:5852   */\n    tag_25:\n        /* \"#utility.yul\":5263:5267   */\n      0x00\n        /* \"#utility.yul\":5301:5304   */\n      0x80\n        /* \"#utility.yul\":5290:5299   */\n      dup3\n        /* \"#utility.yul\":5286:5305   */\n      add\n        /* \"#utility.yul\":5278:5305   */\n      swap1\n      pop\n        /* \"#utility.yul\":5315:5386   */\n      tag_159\n        /* \"#utility.yul\":5383:5384   */\n      0x00\n        /* \"#utility.yul\":5372:5381   */\n      dup4\n        /* \"#utility.yul\":5368:5385   */\n      add\n        /* \"#utility.yul\":5359:5365   */\n      dup8\n        /* \"#utility.yul\":5315:5386   */\n      tag_59\n      jump\t// in\n    tag_159:\n        /* \"#utility.yul\":5433:5442   */\n      dup2\n        /* \"#utility.yul\":5427:5431   */\n      dup2\n        /* \"#utility.yul\":5423:5443   */\n      sub\n        /* \"#utility.yul\":5418:5420   */\n      0x20\n        /* \"#utility.yul\":5407:5416   */\n      dup4\n        /* \"#utility.yul\":5403:5421   */\n      add\n        /* \"#utility.yul\":5396:5444   */\n      mstore\n        /* \"#utility.yul\":5461:5539   */\n      tag_160\n        /* \"#utility.yul\":5534:5538   */\n      dup2\n        /* \"#utility.yul\":5525:5531   */\n      dup7\n        /* \"#utility.yul\":5461:5539   */\n      tag_78\n      jump\t// in\n    tag_160:\n        /* \"#utility.yul\":5453:5539   */\n      swap1\n      pop\n        /* \"#utility.yul\":5586:5595   */\n      dup2\n        /* \"#utility.yul\":5580:5584   */\n      dup2\n        /* \"#utility.yul\":5576:5596   */\n      sub\n        /* \"#utility.yul\":5571:5573   */\n      0x40\n        /* \"#utility.yul\":5560:5569   */\n      dup4\n        /* \"#utility.yul\":5556:5574   */\n      add\n        /* \"#utility.yul\":5549:5597   */\n      mstore\n        /* \"#utility.yul\":5614:5692   */\n      tag_161\n        /* \"#utility.yul\":5687:5691   */\n      dup2\n        /* \"#utility.yul\":5678:5684   */\n      dup6\n        /* \"#utility.yul\":5614:5692   */\n      tag_78\n      jump\t// in\n    tag_161:\n        /* \"#utility.yul\":5606:5692   */\n      swap1\n      pop\n        /* \"#utility.yul\":5739:5748   */\n      dup2\n        /* \"#utility.yul\":5733:5737   */\n      dup2\n        /* \"#utility.yul\":5729:5749   */\n      sub\n        /* \"#utility.yul\":5724:5726   */\n      0x60\n        /* \"#utility.yul\":5713:5722   */\n      dup4\n        /* \"#utility.yul\":5709:5727   */\n      add\n        /* \"#utility.yul\":5702:5750   */\n      mstore\n        /* \"#utility.yul\":5767:5845   */\n      tag_162\n        /* \"#utility.yul\":5840:5844   */\n      dup2\n        /* \"#utility.yul\":5831:5837   */\n      dup5\n        /* \"#utility.yul\":5767:5845   */\n      tag_78\n      jump\t// in\n    tag_162:\n        /* \"#utility.yul\":5759:5845   */\n      swap1\n      pop\n        /* \"#utility.yul\":5026:5852   */\n      swap6\n      swap5\n      pop\n      pop\n      pop\n      pop\n      pop\n      jump\t// out\n        /* \"#utility.yul\":5858:7163   */\n    tag_28:\n        /* \"#utility.yul\":5974:5980   */\n      0x00\n        /* \"#utility.yul\":5982:5988   */\n      dup1\n        /* \"#utility.yul\":5990:5996   */\n      0x00\n        /* \"#utility.yul\":5998:6004   */\n      dup1\n        /* \"#utility.yul\":6047:6050   */\n      0x80\n        /* \"#utility.yul\":6035:6044   */\n      dup6\n        /* \"#utility.yul\":6026:6033   */\n      dup8\n        /* \"#utility.yul\":6022:6045   */\n      sub\n        /* \"#utility.yul\":6018:6051   */\n      slt\n        /* \"#utility.yul\":6015:6135   */\n      iszero\n      tag_164\n      jumpi\n        /* \"#utility.yul\":6054:6133   */\n      tag_165\n      tag_61\n      jump\t// in\n    tag_165:\n        /* \"#utility.yul\":6015:6135   */\n    tag_164:\n        /* \"#utility.yul\":6202:6203   */\n      0x00\n        /* \"#utility.yul\":6191:6200   */\n      dup6\n        /* \"#utility.yul\":6187:6204   */\n      add\n        /* \"#utility.yul\":6174:6205   */\n      calldataload\n        /* \"#utility.yul\":6232:6250   */\n      0xffffffffffffffff\n        /* \"#utility.yul\":6224:6230   */\n      dup2\n        /* \"#utility.yul\":6221:6251   */\n      gt\n        /* \"#utility.yul\":6218:6335   */\n      iszero\n      tag_166\n      jumpi\n        /* \"#utility.yul\":6254:6333   */\n      tag_167\n      tag_62\n      jump\t// in\n    tag_167:\n        /* \"#utility.yul\":6218:6335   */\n    tag_166:\n        /* \"#utility.yul\":6359:6422   */\n      tag_168\n        /* \"#utility.yul\":6414:6421   */\n      dup8\n        /* \"#utility.yul\":6405:6411   */\n      dup3\n        /* \"#utility.yul\":6394:6403   */\n      dup9\n        /* \"#utility.yul\":6390:6412   */\n      add\n        /* \"#utility.yul\":6359:6422   */\n      tag_74\n      jump\t// in\n    tag_168:\n        /* \"#utility.yul\":6349:6422   */\n      swap5\n      pop\n        /* \"#utility.yul\":6145:6432   */\n      pop\n        /* \"#utility.yul\":6471:6473   */\n      0x20\n        /* \"#utility.yul\":6497:6550   */\n      tag_169\n        /* \"#utility.yul\":6542:6549   */\n      dup8\n        /* \"#utility.yul\":6533:6539   */\n      dup3\n        /* \"#utility.yul\":6522:6531   */\n      dup9\n        /* \"#utility.yul\":6518:6540   */\n      add\n        /* \"#utility.yul\":6497:6550   */\n      tag_64\n      jump\t// in\n    tag_169:\n        /* \"#utility.yul\":6487:6550   */\n      swap4\n      pop\n        /* \"#utility.yul\":6442:6560   */\n      pop\n        /* \"#utility.yul\":6627:6629   */\n      0x40\n        /* \"#utility.yul\":6616:6625   */\n      dup6\n        /* \"#utility.yul\":6612:6630   */\n      add\n        /* \"#utility.yul\":6599:6631   */\n      calldataload\n        /* \"#utility.yul\":6658:6676   */\n      0xffffffffffffffff\n        /* \"#utility.yul\":6650:6656   */\n      dup2\n        /* \"#utility.yul\":6647:6677   */\n      gt\n        /* \"#utility.yul\":6644:6761   */\n      iszero\n      tag_170\n      jumpi\n        /* \"#utility.yul\":6680:6759   */\n      tag_171\n      tag_62\n      jump\t// in\n    tag_171:\n        /* \"#utility.yul\":6644:6761   */\n    tag_170:\n        /* \"#utility.yul\":6785:6848   */\n      tag_172\n        /* \"#utility.yul\":6840:6847   */\n      dup8\n        /* \"#utility.yul\":6831:6837   */\n      dup3\n        /* \"#utility.yul\":6820:6829   */\n      dup9\n        /* \"#utility.yul\":6816:6838   */\n      add\n        /* \"#utility.yul\":6785:6848   */\n      tag_74\n      jump\t// in\n    tag_172:\n        /* \"#utility.yul\":6775:6848   */\n      swap3\n      pop\n        /* \"#utility.yul\":6570:6858   */\n      pop\n        /* \"#utility.yul\":6925:6927   */\n      0x60\n        /* \"#utility.yul\":6914:6923   */\n      dup6\n        /* \"#utility.yul\":6910:6928   */\n      add\n        /* \"#utility.yul\":6897:6929   */\n      calldataload\n        /* \"#utility.yul\":6956:6974   */\n      0xffffffffffffffff\n        /* \"#utility.yul\":6948:6954   */\n      dup2\n        /* \"#utility.yul\":6945:6975   */\n      gt\n        /* \"#utility.yul\":6942:7059   */\n      iszero\n      tag_173\n      jumpi\n        /* \"#utility.yul\":6978:7057   */\n      tag_174\n      tag_62\n      jump\t// in\n    tag_174:\n        /* \"#utility.yul\":6942:7059   */\n    tag_173:\n        /* \"#utility.yul\":7083:7146   */\n      tag_175\n        /* \"#utility.yul\":7138:7145   */\n      dup8\n        /* \"#utility.yul\":7129:7135   */\n      dup3\n        /* \"#utility.yul\":7118:7127   */\n      dup9\n        /* \"#utility.yul\":7114:7136   */\n      add\n        /* \"#utility.yul\":7083:7146   */\n      tag_74\n      jump\t// in\n    tag_175:\n        /* \"#utility.yul\":7073:7146   */\n      swap2\n      pop\n        /* \"#utility.yul\":6868:7156   */\n      pop\n        /* \"#utility.yul\":5858:7163   */\n      swap3\n      swap6\n      swap2\n      swap5\n      pop\n      swap3\n      pop\n      jump\t// out\n        /* \"#utility.yul\":7169:7349   */\n    tag_79:\n        /* \"#utility.yul\":7217:7294   */\n      0x4e487b7100000000000000000000000000000000000000000000000000000000\n        /* \"#utility.yul\":7214:7215   */\n      0x00\n        /* \"#utility.yul\":7207:7295   */\n      mstore\n        /* \"#utility.yul\":7314:7318   */\n      0x22\n        /* \"#utility.yul\":7311:7312   */\n      0x04\n        /* \"#utility.yul\":7304:7319   */\n      mstore\n        /* \"#utility.yul\":7338:7342   */\n      0x24\n        /* \"#utility.yul\":7335:7336   */\n      0x00\n        /* \"#utility.yul\":7328:7343   */\n      revert\n        /* \"#utility.yul\":7355:7675   */\n    tag_35:\n        /* \"#utility.yul\":7399:7405   */\n      0x00\n        /* \"#utility.yul\":7436:7437   */\n      0x02\n        /* \"#utility.yul\":7430:7434   */\n      dup3\n        /* \"#utility.yul\":7426:7438   */\n      div\n        /* \"#utility.yul\":7416:7438   */\n      swap1\n      pop\n        /* \"#utility.yul\":7483:7484   */\n      0x01\n        /* \"#utility.yul\":7477:7481   */\n      dup3\n        /* \"#utility.yul\":7473:7485   */\n      and\n        /* \"#utility.yul\":7504:7522   */\n      dup1\n        /* \"#utility.yul\":7494:7575   */\n      tag_178\n      jumpi\n        /* \"#utility.yul\":7560:7564   */\n      0x7f\n        /* \"#utility.yul\":7552:7558   */\n      dup3\n        /* \"#utility.yul\":7548:7565   */\n      and\n        /* \"#utility.yul\":7538:7565   */\n      swap2\n      pop\n        /* \"#utility.yul\":7494:7575   */\n    tag_178:\n        /* \"#utility.yul\":7622:7624   */\n      0x20\n        /* \"#utility.yul\":7614:7620   */\n      dup3\n        /* \"#utility.yul\":7611:7625   */\n      lt\n        /* \"#utility.yul\":7591:7609   */\n      dup2\n        /* \"#utility.yul\":7588:7626   */\n      sub\n        /* \"#utility.yul\":7585:7669   */\n      tag_179\n      jumpi\n        /* \"#utility.yul\":7641:7659   */\n      tag_180\n      tag_79\n      jump\t// in\n    tag_180:\n        /* \"#utility.yul\":7585:7669   */\n    tag_179:\n        /* \"#utility.yul\":7406:7675   */\n      pop\n        /* \"#utility.yul\":7355:7675   */\n      swap2\n      swap1\n      pop\n      jump\t// out\n        /* \"#utility.yul\":7681:7822   */\n    tag_80:\n        /* \"#utility.yul\":7730:7734   */\n      0x00\n        /* \"#utility.yul\":7753:7756   */\n      dup2\n        /* \"#utility.yul\":7745:7756   */\n      swap1\n      pop\n        /* \"#utility.yul\":7776:7779   */\n      dup2\n        /* \"#utility.yul\":7773:7774   */\n      0x00\n        /* \"#utility.yul\":7766:7780   */\n      mstore\n        /* \"#utility.yul\":7810:7814   */\n      0x20\n        /* \"#utility.yul\":7807:7808   */\n      0x00\n        /* \"#utility.yul\":7797:7815   */\n      keccak256\n        /* \"#utility.yul\":7789:7815   */\n      swap1\n      pop\n        /* \"#utility.yul\":7681:7822   */\n      swap2\n      swap1\n      pop\n      jump\t// out\n        /* \"#utility.yul\":7828:7921   */\n    tag_81:\n        /* \"#utility.yul\":7865:7871   */\n      0x00\n        /* \"#utility.yul\":7912:7914   */\n      0x20\n        /* \"#utility.yul\":7907:7909   */\n      0x1f\n        /* \"#utility.yul\":7900:7905   */\n      dup4\n        /* \"#utility.yul\":7896:7910   */\n      add\n        /* \"#utility.yul\":7892:7915   */\n      div\n        /* \"#utility.yul\":7882:7915   */\n      swap1\n      pop\n        /* \"#utility.yul\":7828:7921   */\n      swap2\n      swap1\n      pop\n      jump\t// out\n        /* \"#utility.yul\":7927:8034   */\n    tag_82:\n        /* \"#utility.yul\":7971:7979   */\n      0x00\n        /* \"#utility.yul\":8021:8026   */\n      dup3\n        /* \"#utility.yul\":8015:8019   */\n      dup3\n        /* \"#utility.yul\":8011:8027   */\n      shl\n        /* \"#utility.yul\":7990:8027   */\n      swap1\n      pop\n        /* \"#utility.yul\":7927:8034   */\n      swap3\n      swap2\n      pop\n      pop\n      jump\t// out\n        /* \"#utility.yul\":8040:8433   */\n    tag_83:\n        /* \"#utility.yul\":8109:8115   */\n      0x00\n        /* \"#utility.yul\":8159:8160   */\n      0x08\n        /* \"#utility.yul\":8147:8157   */\n      dup4\n        /* \"#utility.yul\":8143:8161   */\n      mul\n        /* \"#utility.yul\":8182:8279   */\n      tag_185\n        /* \"#utility.yul\":8212:8278   */\n      0xffffffffffffffffffffffffffffffffffffffffffffffffffffffffffffffff\n        /* \"#utility.yul\":8201:8210   */\n      dup3\n        /* \"#utility.yul\":8182:8279   */\n      tag_82\n      jump\t// in\n    tag_185:\n        /* \"#utility.yul\":8300:8339   */\n      tag_186\n        /* \"#utility.yul\":8330:8338   */\n      dup7\n        /* \"#utility.yul\":8319:8328   */\n      dup4\n        /* \"#utility.yul\":8300:8339   */\n      tag_82\n      jump\t// in\n    tag_186:\n        /* \"#utility.yul\":8288:8339   */\n      swap6\n      pop\n        /* \"#utility.yul\":8372:8376   */\n      dup1\n        /* \"#utility.yul\":8368:8377   */\n      not\n        /* \"#utility.yul\":8361:8366   */\n      dup5\n        /* \"#utility.yul\":8357:8378   */\n      and\n        /* \"#utility.yul\":8348:8378   */\n      swap4\n      pop\n        /* \"#utility.yul\":8421:8425   */\n      dup1\n        /* \"#utility.yul\":8411:8419   */\n      dup7\n        /* \"#utility.yul\":8407:8426   */\n      and\n        /* \"#utility.yul\":8400:8405   */\n      dup5\n        /* \"#utility.yul\":8397:8427   */\n      or\n        /* \"#utility.yul\":8387:8427   */\n      swap3\n      pop\n        /* \"#utility.yul\":8116:8433   */\n      pop\n      pop\n        /* \"#utility.yul\":8040:8433   */\n      swap4\n      swap3\n      pop\n      pop\n      pop\n      jump\t// out\n        /* \"#utility.yul\":8439:8499   */\n    tag_84:\n        /* \"#utility.yul\":8467:8470   */\n      0x00\n        /* \"#utility.yul\":8488:8493   */\n      dup2\n        /* \"#utility.yul\":8481:8493   */\n      swap1\n      pop\n        /* \"#utility.yul\":8439:8499   */\n      swap2\n      swap1\n      pop\n      jump\t// out\n        /* \"#utility.yul\":8505:8647   */\n    tag_85:\n        /* \"#utility.yul\":8555:8564   */\n      0x00\n        /* \"#utility.yul\":8588:8641   */\n      tag_189\n        /* \"#utility.yul\":8606:8640   */\n      tag_190\n        /* \"#utility.yul\":8615:8639   */\n      tag_191\n        /* \"#utility.yul\":8633:8638   */\n      dup5\n        /* \"#utility.yul\":8615:8639   */\n      tag_58\n      jump\t// in\n    tag_191:\n        /* \"#utility.yul\":8606:8640   */\n      tag_84\n      jump\t// in\n    tag_190:\n        /* \"#utility.yul\":8588:8641   */\n      tag_58\n      jump\t// in\n    tag_189:\n        /* \"#utility.yul\":8575:8641   */\n      swap1\n      pop\n        /* \"#utility.yul\":8505:8647   */\n      swap2\n      swap1\n      pop\n      jump\t// out\n        /* \"#utility.yul\":8653:8728   */\n    tag_86:\n        /* \"#utility.yul\":8696:8699   */\n      0x00\n        /* \"#utility.yul\":8717:8722   */\n      dup2\n        /* \"#utility.yul\":8710:8722   */\n      swap1\n      pop\n        /* \"#utility.yul\":8653:8728   */\n      swap2\n      swap1\n      pop\n      jump\t// out\n        /* \"#utility.yul\":8734:9003   */\n    tag_87:\n        /* \"#utility.yul\":8844:8883   */\n      tag_194\n        /* \"#utility.yul\":8875:8882   */\n      dup4\n        /* \"#utility.yul\":8844:8883   */\n      tag_85\n      jump\t// in\n    tag_194:\n        /* \"#utility.yul\":8905:8996   */\n      tag_195\n        /* \"#utility.yul\":8954:8995   */\n      tag_196\n        /* \"#utility.yul\":8978:8994   */\n      dup3\n        /* \"#utility.yul\":8954:8995   */\n      tag_86\n      jump\t// in\n    tag_196:\n        /* \"#utility.yul\":8946:8952   */\n      dup5\n        /* \"#utility.yul\":8939:8943   */\n      dup5\n        /* \"#utility.yul\":8933:8944   */\n      sload\n        /* \"#utility.yul\":8905:8996   */\n      tag_83\n      jump\t// in\n    tag_195:\n        /* \"#utility.yul\":8899:8903   */\n      dup3\n        /* \"#utility.yul\":8892:8997   */\n      sstore\n        /* \"#utility.yul\":8810:9003   */\n      pop\n        /* \"#utility.yul\":8734:9003   */\n      pop\n      pop\n      pop\n      jump\t// out\n        /* \"#utility.yul\":9009:9082   */\n    tag_88:\n        /* \"#utility.yul\":9054:9057   */\n      0x00\n        /* \"#utility.yul\":9009:9082   */\n      swap1\n      jump\t// out\n        /* \"#utility.yul\":9088:9277   */\n    tag_89:\n        /* \"#utility.yul\":9165:9197   */\n      tag_199\n      tag_88\n      jump\t// in\n    tag_199:\n        /* \"#utility.yul\":9206:9271   */\n      tag_200\n        /* \"#utility.yul\":9264:9270   */\n      dup2\n        /* \"#utility.yul\":9256:9262   */\n      dup5\n        /* \"#utility.yul\":9250:9254   */\n      dup5\n        /* \"#utility.yul\":9206:9271   */\n      tag_87\n      jump\t// in\n    tag_200:\n        /* \"#utility.yul\":9141:9277   */\n      pop\n        /* \"#utility.yul\":9088:9277   */\n      pop\n      pop\n      jump\t// out\n        /* \"#utility.yul\":9283:9469   */\n    tag_90:\n        /* \"#utility.yul\":9343:9463   */\n    tag_202:\n        /* \"#utility.yul\":9360:9363   */\n      dup2\n        /* \"#utility.yul\":9353:9358   */\n      dup2\n        /* \"#utility.yul\":9350:9364   */\n      lt\n        /* \"#utility.yul\":9343:9463   */\n      iszero\n      tag_204\n      jumpi\n        /* \"#utility.yul\":9414:9453   */\n      tag_205\n        /* \"#utility.yul\":9451:9452   */\n      0x00\n        /* \"#utility.yul\":9444:9449   */\n      dup3\n        /* \"#utility.yul\":9414:9453   */\n      tag_89\n      jump\t// in\n    tag_205:\n        /* \"#utility.yul\":9387:9388   */\n      0x01\n        /* \"#utility.yul\":9380:9385   */\n      dup2\n        /* \"#utility.yul\":9376:9389   */\n      add\n        /* \"#utility.yul\":9367:9389   */\n      swap1\n      pop\n        /* \"#utility.yul\":9343:9463   */\n      jump(tag_202)\n    tag_204:\n        /* \"#utility.yul\":9283:9469   */\n      pop\n      pop\n      jump\t// out\n        /* \"#utility.yul\":9475:10018   */\n    tag_91:\n        /* \"#utility.yul\":9576:9578   */\n      0x1f\n        /* \"#utility.yul\":9571:9574   */\n      dup3\n        /* \"#utility.yul\":9568:9579   */\n      gt\n        /* \"#utility.yul\":9565:10011   */\n      iszero\n      tag_207\n      jumpi\n        /* \"#utility.yul\":9610:9648   */\n      tag_208\n        /* \"#utility.yul\":9642:9647   */\n      dup2\n        /* \"#utility.yul\":9610:9648   */\n      tag_80\n      jump\t// in\n    tag_208:\n        /* \"#utility.yul\":9694:9723   */\n      tag_209\n        /* \"#utility.yul\":9712:9722   */\n      dup5\n        /* \"#utility.yul\":9694:9723   */\n      tag_81\n      jump\t// in\n    tag_209:\n        /* \"#utility.yul\":9684:9692   */\n      dup2\n        /* \"#utility.yul\":9680:9724   */\n      add\n        /* \"#utility.yul\":9877:9879   */\n      0x20\n        /* \"#utility.yul\":9865:9875   */\n      dup6\n        /* \"#utility.yul\":9862:9880   */\n      lt\n        /* \"#utility.yul\":9859:9908   */\n      iszero\n      tag_210\n      jumpi\n        /* \"#utility.yul\":9898:9906   */\n      dup2\n        /* \"#utility.yul\":9883:9906   */\n      swap1\n      pop\n        /* \"#utility.yul\":9859:9908   */\n    tag_210:\n        /* \"#utility.yul\":9921:10001   */\n      tag_211\n        /* \"#utility.yul\":9977:9999   */\n      tag_212\n        /* \"#utility.yul\":9995:9998   */\n      dup6\n        /* \"#utility.yul\":9977:9999   */\n      tag_81\n      jump\t// in\n    tag_212:\n        /* \"#utility.yul\":9967:9975   */\n      dup4\n        /* \"#utility.yul\":9963:10000   */\n      add\n        /* \"#utility.yul\":9950:9961   */\n      dup3\n        /* \"#utility.yul\":9921:10001   */\n      tag_90\n      jump\t// in\n    tag_211:\n        /* \"#utility.yul\":9580:10011   */\n      pop\n      pop\n        /* \"#utility.yul\":9565:10011   */\n    tag_207:\n        /* \"#utility.yul\":9475:10018   */\n      pop\n      pop\n      pop\n      jump\t// out\n        /* \"#utility.yul\":10024:10141   */\n    tag_92:\n        /* \"#utility.yul\":10078:10086   */\n      0x00\n        /* \"#utility.yul\":10128:10133   */\n      dup3\n        /* \"#utility.yul\":10122:10126   */\n      dup3\n        /* \"#utility.yul\":10118:10134   */\n      shr\n        /* \"#utility.yul\":10097:10134   */\n      swap1\n      pop\n        /* \"#utility.yul\":10024:10141   */\n      swap3\n      swap2\n      pop\n      pop\n      jump\t// out\n        /* \"#utility.yul\":10147:10316   */\n    tag_93:\n        /* \"#utility.yul\":10191:10197   */\n      0x00\n        /* \"#utility.yul\":10224:10275   */\n      tag_215\n        /* \"#utility.yul\":10272:10273   */\n      0x00\n        /* \"#utility.yul\":10268:10274   */\n      not\n        /* \"#utility.yul\":10260:10265   */\n      dup5\n        /* \"#utility.yul\":10257:10258   */\n      0x08\n        /* \"#utility.yul\":10253:10266   */\n      mul\n        /* \"#utility.yul\":10224:10275   */\n      tag_92\n      jump\t// in\n    tag_215:\n        /* \"#utility.yul\":10220:10276   */\n      not\n        /* \"#utility.yul\":10305:10309   */\n      dup1\n        /* \"#utility.yul\":10299:10303   */\n      dup4\n        /* \"#utility.yul\":10295:10310   */\n      and\n        /* \"#utility.yul\":10285:10310   */\n      swap2\n      pop\n        /* \"#utility.yul\":10198:10316   */\n      pop\n        /* \"#utility.yul\":10147:10316   */\n      swap3\n      swap2\n      pop\n      pop\n      jump\t// out\n        /* \"#utility.yul\":10321:10616   */\n    tag_94:\n        /* \"#utility.yul\":10397:10401   */\n      0x00\n        /* \"#utility.yul\":10543:10572   */\n      tag_217\n        /* \"#utility.yul\":10568:10571   */\n      dup4\n        /* \"#utility.yul\":10562:10566   */\n      dup4\n        /* \"#utility.yul\":10543:10572   */\n      tag_93\n      jump\t// in\n    tag_217:\n        /* \"#utility.yul\":10535:10572   */\n      swap2\n      pop\n        /* \"#utility.yul\":10605:10608   */\n      dup3\n        /* \"#utility.yul\":10602:10603   */\n      0x02\n        /* \"#utility.yul\":10598:10609   */\n      mul\n        /* \"#utility.yul\":10592:10596   */\n      dup3\n        /* \"#utility.yul\":10589:10610   */\n      or\n        /* \"#utility.yul\":10581:10610   */\n      swap1\n      pop\n        /* \"#utility.yul\":10321:10616   */\n      swap3\n      swap2\n      pop\n      pop\n      jump\t// out\n        /* \"#utility.yul\":10621:12016   */\n    tag_53:\n        /* \"#utility.yul\":10738:10775   */\n      tag_219\n        /* \"#utility.yul\":10771:10774   */\n      dup3\n        /* \"#utility.yul\":10738:10775   */\n      tag_75\n      jump\t// in\n    tag_219:\n        /* \"#utility.yul\":10840:10858   */\n      0xffffffffffffffff\n        /* \"#utility.yul\":10832:10838   */\n      dup2\n        /* \"#utility.yul\":10829:10859   */\n      gt\n        /* \"#utility.yul\":10826:10882   */\n      iszero\n      tag_220\n      jumpi\n        /* \"#utility.yul\":10862:10880   */\n      tag_221\n      tag_68\n      jump\t// in\n    tag_221:\n        /* \"#utility.yul\":10826:10882   */\n    tag_220:\n        /* \"#utility.yul\":10906:10944   */\n      tag_222\n        /* \"#utility.yul\":10938:10942   */\n      dup3\n        /* \"#utility.yul\":10932:10943   */\n      sload\n        /* \"#utility.yul\":10906:10944   */\n      tag_35\n      jump\t// in\n    tag_222:\n        /* \"#utility.yul\":10991:11058   */\n      tag_223\n        /* \"#utility.yul\":11051:11057   */\n      dup3\n        /* \"#utility.yul\":11043:11049   */\n      dup3\n        /* \"#utility.yul\":11037:11041   */\n      dup6\n        /* \"#utility.yul\":10991:11058   */\n      tag_91\n      jump\t// in\n    tag_223:\n        /* \"#utility.yul\":11085:11086   */\n      0x00\n        /* \"#utility.yul\":11109:11113   */\n      0x20\n        /* \"#utility.yul\":11096:11113   */\n      swap1\n      pop\n        /* \"#utility.yul\":11141:11143   */\n      0x1f\n        /* \"#utility.yul\":11133:11139   */\n      dup4\n        /* \"#utility.yul\":11130:11144   */\n      gt\n        /* \"#utility.yul\":11158:11159   */\n      0x01\n        /* \"#utility.yul\":11153:11771   */\n      dup2\n      eq\n      tag_225\n      jumpi\n        /* \"#utility.yul\":11815:11816   */\n      0x00\n        /* \"#utility.yul\":11832:11838   */\n      dup5\n        /* \"#utility.yul\":11829:11906   */\n      iszero\n      tag_226\n      jumpi\n        /* \"#utility.yul\":11881:11890   */\n      dup3\n        /* \"#utility.yul\":11876:11879   */\n      dup8\n        /* \"#utility.yul\":11872:11891   */\n      add\n        /* \"#utility.yul\":11866:11892   */\n      mload\n        /* \"#utility.yul\":11857:11892   */\n      swap1\n      pop\n        /* \"#utility.yul\":11829:11906   */\n    tag_226:\n        /* \"#utility.yul\":11932:11999   */\n      tag_227\n        /* \"#utility.yul\":11992:11998   */\n      dup6\n        /* \"#utility.yul\":11985:11990   */\n      dup3\n        /* \"#utility.yul\":11932:11999   */\n      tag_94\n      jump\t// in\n    tag_227:\n        /* \"#utility.yul\":11926:11930   */\n      dup7\n        /* \"#utility.yul\":11919:12000   */\n      sstore\n        /* \"#utility.yul\":11788:12010   */\n      pop\n        /* \"#utility.yul\":11123:12010   */\n      jump(tag_224)\n        /* \"#utility.yul\":11153:11771   */\n    tag_225:\n        /* \"#utility.yul\":11205:11209   */\n      0x1f\n        /* \"#utility.yul\":11201:11210   */\n      not\n        /* \"#utility.yul\":11193:11199   */\n      dup5\n        /* \"#utility.yul\":11189:11211   */\n      and\n        /* \"#utility.yul\":11239:11276   */\n      tag_228\n        /* \"#utility.yul\":11271:11275   */\n      dup7\n        /* \"#utility.yul\":11239:11276   */\n      tag_80\n      jump\t// in\n    tag_228:\n        /* \"#utility.yul\":11298:11299   */\n      0x00\n        /* \"#utility.yul\":11312:11520   */\n    tag_229:\n        /* \"#utility.yul\":11326:11333   */\n      dup3\n        /* \"#utility.yul\":11323:11324   */\n      dup2\n        /* \"#utility.yul\":11320:11334   */\n      lt\n        /* \"#utility.yul\":11312:11520   */\n      iszero\n      tag_231\n      jumpi\n        /* \"#utility.yul\":11405:11414   */\n      dup5\n        /* \"#utility.yul\":11400:11403   */\n      dup10\n        /* \"#utility.yul\":11396:11415   */\n      add\n        /* \"#utility.yul\":11390:11416   */\n      mload\n        /* \"#utility.yul\":11382:11388   */\n      dup3\n        /* \"#utility.yul\":11375:11417   */\n      sstore\n        /* \"#utility.yul\":11456:11457   */\n      0x01\n        /* \"#utility.yul\":11448:11454   */\n      dup3\n        /* \"#utility.yul\":11444:11458   */\n      add\n        /* \"#utility.yul\":11434:11458   */\n      swap2\n      pop\n        /* \"#utility.yul\":11503:11505   */\n      0x20\n        /* \"#utility.yul\":11492:11501   */\n      dup6\n        /* \"#utility.yul\":11488:11506   */\n      add\n        /* \"#utility.yul\":11475:11506   */\n      swap5\n      pop\n        /* \"#utility.yul\":11349:11353   */\n      0x20\n        /* \"#utility.yul\":11346:11347   */\n      dup2\n        /* \"#utility.yul\":11342:11354   */\n      add\n        /* \"#utility.yul\":11337:11354   */\n      swap1\n      pop\n        /* \"#utility.yul\":11312:11520   */\n      jump(tag_229)\n    tag_231:\n        /* \"#utility.yul\":11548:11554   */\n      dup7\n        /* \"#utility.yul\":11539:11546   */\n      dup4\n        /* \"#utility.yul\":11536:11555   */\n      lt\n        /* \"#utility.yul\":11533:11712   */\n      iszero\n      tag_232\n      jumpi\n        /* \"#utility.yul\":11606:11615   */\n      dup5\n        /* \"#utility.yul\":11601:11604   */\n      dup10\n        /* \"#utility.yul\":11597:11616   */\n      add\n        /* \"#utility.yul\":11591:11617   */\n      mload\n        /* \"#utility.yul\":11649:11697   */\n      tag_233\n        /* \"#utility.yul\":11691:11695   */\n      0x1f\n        /* \"#utility.yul\":11683:11689   */\n      dup10\n        /* \"#utility.yul\":11679:11696   */\n      and\n        /* \"#utility.yul\":11668:11677   */\n      dup3\n        /* \"#utility.yul\":11649:11697   */\n      tag_93\n      jump\t// in\n    tag_233:\n        /* \"#utility.yul\":11641:11647   */\n      dup4\n        /* \"#utility.yul\":11634:11698   */\n      sstore\n        /* \"#utility.yul\":11556:11712   */\n      pop\n        /* \"#utility.yul\":11533:11712   */\n    tag_232:\n        /* \"#utility.yul\":11758:11759   */\n      0x01\n        /* \"#utility.yul\":11754:11755   */\n      0x02\n        /* \"#utility.yul\":11746:11752   */\n      dup9\n        /* \"#utility.yul\":11742:11756   */\n      mul\n        /* \"#utility.yul\":11738:11760   */\n      add\n        /* \"#utility.yul\":11732:11736   */\n      dup9\n        /* \"#utility.yul\":11725:11761   */\n      sstore\n        /* \"#utility.yul\":11160:11771   */\n      pop\n      pop\n      pop\n        /* \"#utility.yul\":11123:12010   */\n    tag_224:\n      pop\n        /* \"#utility.yul\":10713:12016   */\n      pop\n      pop\n      pop\n        /* \"#utility.yul\":10621:12016   */\n      pop\n      pop\n      jump\t// out\n        /* \"#utility.yul\":12022:12170   */\n    tag_95:\n        /* \"#utility.yul\":12124:12135   */\n      0x00\n        /* \"#utility.yul\":12161:12164   */\n      dup2\n        /* \"#utility.yul\":12146:12164   */\n      swap1\n      pop\n        /* \"#utility.yul\":12022:12170   */\n      swap3\n      swap2\n      pop\n      pop\n      jump\t// out\n        /* \"#utility.yul\":12176:12566   */\n    tag_96:\n        /* \"#utility.yul\":12282:12285   */\n      0x00\n        /* \"#utility.yul\":12310:12349   */\n      tag_236\n        /* \"#utility.yul\":12343:12348   */\n      dup3\n        /* \"#utility.yul\":12310:12349   */\n      tag_75\n      jump\t// in\n    tag_236:\n        /* \"#utility.yul\":12365:12454   */\n      tag_237\n        /* \"#utility.yul\":12447:12453   */\n      dup2\n        /* \"#utility.yul\":12442:12445   */\n      dup6\n        /* \"#utility.yul\":12365:12454   */\n      tag_95\n      jump\t// in\n    tag_237:\n        /* \"#utility.yul\":12358:12454   */\n      swap4\n      pop\n        /* \"#utility.yul\":12463:12528   */\n      tag_238\n        /* \"#utility.yul\":12521:12527   */\n      dup2\n        /* \"#utility.yul\":12516:12519   */\n      dup6\n        /* \"#utility.yul\":12509:12513   */\n      0x20\n        /* \"#utility.yul\":12502:12507   */\n      dup7\n        /* \"#utility.yul\":12498:12514   */\n      add\n        /* \"#utility.yul\":12463:12528   */\n      tag_77\n      jump\t// in\n    tag_238:\n        /* \"#utility.yul\":12553:12559   */\n      dup1\n        /* \"#utility.yul\":12548:12551   */\n      dup5\n        /* \"#utility.yul\":12544:12560   */\n      add\n        /* \"#utility.yul\":12537:12560   */\n      swap2\n      pop\n        /* \"#utility.yul\":12286:12566   */\n      pop\n        /* \"#utility.yul\":12176:12566   */\n      swap3\n      swap2\n      pop\n      pop\n      jump\t// out\n        /* \"#utility.yul\":12572:12847   */\n    tag_57:\n        /* \"#utility.yul\":12704:12707   */\n      0x00\n        /* \"#utility.yul\":12726:12821   */\n      tag_240\n        /* \"#utility.yul\":12817:12820   */\n      dup3\n        /* \"#utility.yul\":12808:12814   */\n      dup5\n        /* \"#utility.yul\":12726:12821   */\n      tag_96\n      jump\t// in\n    tag_240:\n        /* \"#utility.yul\":12719:12821   */\n      swap2\n      pop\n        /* \"#utility.yul\":12838:12841   */\n      dup2\n        /* \"#utility.yul\":12831:12841   */\n      swap1\n      pop\n        /* \"#utility.yul\":12572:12847   */\n      swap3\n      swap2\n      pop\n      pop\n      jump\t// out\n\n    auxdata: 0xa26469706673582212205ae4566a7cd47edf6c38b25c18641d8794d16bf3ae74e9cd924f9510cbd40b1064736f6c63430008160033\n}\n",
				"bytecode": {
					"linkReferences": {},
					"object": "608060405234801561000f575f80fd5b50610ace8061001d5f395ff3fe608060405234801561000f575f80fd5b5060043610610055575f3560e01c80632e64cec1146100595780636057361d146100775780638bab8dd5146100935780639e7a13ad146100c35780639f8c5108146100f6575b5f80fd5b610061610112565b60405161006e91906103f3565b60405180910390f35b610091600480360381019061008c9190610447565b61011a565b005b6100ad60048036038101906100a891906105ae565b610123565b6040516100ba91906103f3565b60405180910390f35b6100dd60048036038101906100d89190610447565b610150565b6040516100ed949392919061066f565b60405180910390f35b610110600480360381019061010b91906106c7565b61031d565b005b5f8054905090565b805f8190555050565b6001818051602081018201805184825260208301602085012081835280955050505050505f915090505481565b6002818154811061015f575f80fd5b905f5260205f2090600402015f91509050805f015490806001018054610184906107ac565b80601f01602080910402602001604051908101604052809291908181526020018280546101b0906107ac565b80156101fb5780601f106101d2576101008083540402835291602001916101fb565b820191905f5260205f20905b8154815290600101906020018083116101de57829003601f168201915b505050505090806002018054610210906107ac565b80601f016020809104026020016040519081016040528092919081815260200182805461023c906107ac565b80156102875780601f1061025e57610100808354040283529160200191610287565b820191905f5260205f20905b81548152906001019060200180831161026a57829003601f168201915b50505050509080600301805461029c906107ac565b80601f01602080910402602001604051908101604052809291908181526020018280546102c8906107ac565b80156103135780601f106102ea57610100808354040283529160200191610313565b820191905f5260205f20905b8154815290600101906020018083116102f657829003601f168201915b5050505050905084565b6002604051806080016040528085815260200186815260200184815260200183815250908060018154018082558091505060019003905f5260205f2090600402015f909190919091505f820151815f015560208201518160010190816103839190610979565b5060408201518160020190816103999190610979565b5060608201518160030190816103af9190610979565b505050826001856040516103c39190610a82565b90815260200160405180910390208190555050505050565b5f819050919050565b6103ed816103db565b82525050565b5f6020820190506104065f8301846103e4565b92915050565b5f604051905090565b5f80fd5b5f80fd5b610426816103db565b8114610430575f80fd5b50565b5f813590506104418161041d565b92915050565b5f6020828403121561045c5761045b610415565b5b5f61046984828501610433565b91505092915050565b5f80fd5b5f80fd5b5f601f19601f8301169050919050565b7f4e487b71000000000000000000000000000000000000000000000000000000005f52604160045260245ffd5b6104c08261047a565b810181811067ffffffffffffffff821117156104df576104de61048a565b5b80604052505050565b5f6104f161040c565b90506104fd82826104b7565b919050565b5f67ffffffffffffffff82111561051c5761051b61048a565b5b6105258261047a565b9050602081019050919050565b828183375f83830152505050565b5f61055261054d84610502565b6104e8565b90508281526020810184848401111561056e5761056d610476565b5b610579848285610532565b509392505050565b5f82601f83011261059557610594610472565b5b81356105a5848260208601610540565b91505092915050565b5f602082840312156105c3576105c2610415565b5b5f82013567ffffffffffffffff8111156105e0576105df610419565b5b6105ec84828501610581565b91505092915050565b5f81519050919050565b5f82825260208201905092915050565b5f5b8381101561062c578082015181840152602081019050610611565b5f8484015250505050565b5f610641826105f5565b61064b81856105ff565b935061065b81856020860161060f565b6106648161047a565b840191505092915050565b5f6080820190506106825f8301876103e4565b81810360208301526106948186610637565b905081810360408301526106a88185610637565b905081810360608301526106bc8184610637565b905095945050505050565b5f805f80608085870312156106df576106de610415565b5b5f85013567ffffffffffffffff8111156106fc576106fb610419565b5b61070887828801610581565b945050602061071987828801610433565b935050604085013567ffffffffffffffff81111561073a57610739610419565b5b61074687828801610581565b925050606085013567ffffffffffffffff81111561076757610766610419565b5b61077387828801610581565b91505092959194509250565b7f4e487b71000000000000000000000000000000000000000000000000000000005f52602260045260245ffd5b5f60028204905060018216806107c357607f821691505b6020821081036107d6576107d561077f565b5b50919050565b5f819050815f5260205f209050919050565b5f6020601f8301049050919050565b5f82821b905092915050565b5f600883026108387fffffffffffffffffffffffffffffffffffffffffffffffffffffffffffffffff826107fd565b61084286836107fd565b95508019841693508086168417925050509392505050565b5f819050919050565b5f61087d610878610873846103db565b61085a565b6103db565b9050919050565b5f819050919050565b61089683610863565b6108aa6108a282610884565b848454610809565b825550505050565b5f90565b6108be6108b2565b6108c981848461088d565b505050565b5b818110156108ec576108e15f826108b6565b6001810190506108cf565b5050565b601f82111561093157610902816107dc565b61090b846107ee565b8101602085101561091a578190505b61092e610926856107ee565b8301826108ce565b50505b505050565b5f82821c905092915050565b5f6109515f1984600802610936565b1980831691505092915050565b5f6109698383610942565b9150826002028217905092915050565b610982826105f5565b67ffffffffffffffff81111561099b5761099a61048a565b5b6109a582546107ac565b6109b08282856108f0565b5f60209050601f8311600181146109e1575f84156109cf578287015190505b6109d9858261095e565b865550610a40565b601f1984166109ef866107dc565b5f5b82811015610a16578489015182556001820191506020850194506020810190506109f1565b86831015610a335784890151610a2f601f891682610942565b8355505b6001600288020188555050505b505050505050565b5f81905092915050565b5f610a5c826105f5565b610a668185610a48565b9350610a7681856020860161060f565b80840191505092915050565b5f610a8d8284610a52565b91508190509291505056fea26469706673582212205ae4566a7cd47edf6c38b25c18641d8794d16bf3ae74e9cd924f9510cbd40b1064736f6c63430008160033",
					"opcodes": "PUSH1 0x80 PUSH1 0x40 MSTORE CALLVALUE DUP1 ISZERO PUSH2 0xF JUMPI PUSH0 DUP1 REVERT JUMPDEST POP PUSH2 0xACE DUP1 PUSH2 0x1D PUSH0 CODECOPY PUSH0 RETURN INVALID PUSH1 0x80 PUSH1 0x40 MSTORE CALLVALUE DUP1 ISZERO PUSH2 0xF JUMPI PUSH0 DUP1 REVERT JUMPDEST POP PUSH1 0x4 CALLDATASIZE LT PUSH2 0x55 JUMPI PUSH0 CALLDATALOAD PUSH1 0xE0 SHR DUP1 PUSH4 0x2E64CEC1 EQ PUSH2 0x59 JUMPI DUP1 PUSH4 0x6057361D EQ PUSH2 0x77 JUMPI DUP1 PUSH4 0x8BAB8DD5 EQ PUSH2 0x93 JUMPI DUP1 PUSH4 0x9E7A13AD EQ PUSH2 0xC3 JUMPI DUP1 PUSH4 0x9F8C5108 EQ PUSH2 0xF6 JUMPI JUMPDEST PUSH0 DUP1 REVERT JUMPDEST PUSH2 0x61 PUSH2 0x112 JUMP JUMPDEST PUSH1 0x40 MLOAD PUSH2 0x6E SWAP2 SWAP1 PUSH2 0x3F3 JUMP JUMPDEST PUSH1 0x40 MLOAD DUP1 SWAP2 SUB SWAP1 RETURN JUMPDEST PUSH2 0x91 PUSH1 0x4 DUP1 CALLDATASIZE SUB DUP2 ADD SWAP1 PUSH2 0x8C SWAP2 SWAP1 PUSH2 0x447 JUMP JUMPDEST PUSH2 0x11A JUMP JUMPDEST STOP JUMPDEST PUSH2 0xAD PUSH1 0x4 DUP1 CALLDATASIZE SUB DUP2 ADD SWAP1 PUSH2 0xA8 SWAP2 SWAP1 PUSH2 0x5AE JUMP JUMPDEST PUSH2 0x123 JUMP JUMPDEST PUSH1 0x40 MLOAD PUSH2 0xBA SWAP2 SWAP1 PUSH2 0x3F3 JUMP JUMPDEST PUSH1 0x40 MLOAD DUP1 SWAP2 SUB SWAP1 RETURN JUMPDEST PUSH2 0xDD PUSH1 0x4 DUP1 CALLDATASIZE SUB DUP2 ADD SWAP1 PUSH2 0xD8 SWAP2 SWAP1 PUSH2 0x447 JUMP JUMPDEST PUSH2 0x150 JUMP JUMPDEST PUSH1 0x40 MLOAD PUSH2 0xED SWAP5 SWAP4 SWAP3 SWAP2 SWAP1 PUSH2 0x66F JUMP JUMPDEST PUSH1 0x40 MLOAD DUP1 SWAP2 SUB SWAP1 RETURN JUMPDEST PUSH2 0x110 PUSH1 0x4 DUP1 CALLDATASIZE SUB DUP2 ADD SWAP1 PUSH2 0x10B SWAP2 SWAP1 PUSH2 0x6C7 JUMP JUMPDEST PUSH2 0x31D JUMP JUMPDEST STOP JUMPDEST PUSH0 DUP1 SLOAD SWAP1 POP SWAP1 JUMP JUMPDEST DUP1 PUSH0 DUP2 SWAP1 SSTORE POP POP JUMP JUMPDEST PUSH1 0x1 DUP2 DUP1 MLOAD PUSH1 0x20 DUP2 ADD DUP3 ADD DUP1 MLOAD DUP5 DUP3 MSTORE PUSH1 0x20 DUP4 ADD PUSH1 0x20 DUP6 ADD KECCAK256 DUP2 DUP4 MSTORE DUP1 SWAP6 POP POP POP POP POP POP PUSH0 SWAP2 POP SWAP1 POP SLOAD DUP2 JUMP JUMPDEST PUSH1 0x2 DUP2 DUP2 SLOAD DUP2 LT PUSH2 0x15F JUMPI PUSH0 DUP1 REVERT JUMPDEST SWAP1 PUSH0 MSTORE PUSH1 0x20 PUSH0 KECCAK256 SWAP1 PUSH1 0x4 MUL ADD PUSH0 SWAP2 POP SWAP1 POP DUP1 PUSH0 ADD SLOAD SWAP1 DUP1 PUSH1 0x1 ADD DUP1 SLOAD PUSH2 0x184 SWAP1 PUSH2 0x7AC JUMP JUMPDEST DUP1 PUSH1 0x1F ADD PUSH1 0x20 DUP1 SWAP2 DIV MUL PUSH1 0x20 ADD PUSH1 0x40 MLOAD SWAP1 DUP2 ADD PUSH1 0x40 MSTORE DUP1 SWAP3 SWAP2 SWAP1 DUP2 DUP2 MSTORE PUSH1 0x20 ADD DUP3 DUP1 SLOAD PUSH2 0x1B0 SWAP1 PUSH2 0x7AC JUMP JUMPDEST DUP1 ISZERO PUSH2 0x1FB JUMPI DUP1 PUSH1 0x1F LT PUSH2 0x1D2 JUMPI PUSH2 0x100 DUP1 DUP4 SLOAD DIV MUL DUP4 MSTORE SWAP2 PUSH1 0x20 ADD SWAP2 PUSH2 0x1FB JUMP JUMPDEST DUP3 ADD SWAP2 SWAP1 PUSH0 MSTORE PUSH1 0x20 PUSH0 KECCAK256 SWAP1 JUMPDEST DUP2 SLOAD DUP2 MSTORE SWAP1 PUSH1 0x1 ADD SWAP1 PUSH1 0x20 ADD DUP1 DUP4 GT PUSH2 0x1DE JUMPI DUP3 SWAP1 SUB PUSH1 0x1F AND DUP3 ADD SWAP2 JUMPDEST POP POP POP POP POP SWAP1 DUP1 PUSH1 0x2 ADD DUP1 SLOAD PUSH2 0x210 SWAP1 PUSH2 0x7AC JUMP JUMPDEST DUP1 PUSH1 0x1F ADD PUSH1 0x20 DUP1 SWAP2 DIV MUL PUSH1 0x20 ADD PUSH1 0x40 MLOAD SWAP1 DUP2 ADD PUSH1 0x40 MSTORE DUP1 SWAP3 SWAP2 SWAP1 DUP2 DUP2 MSTORE PUSH1 0x20 ADD DUP3 DUP1 SLOAD PUSH2 0x23C SWAP1 PUSH2 0x7AC JUMP JUMPDEST DUP1 ISZERO PUSH2 0x287 JUMPI DUP1 PUSH1 0x1F LT PUSH2 0x25E JUMPI PUSH2 0x100 DUP1 DUP4 SLOAD DIV MUL DUP4 MSTORE SWAP2 PUSH1 0x20 ADD SWAP2 PUSH2 0x287 JUMP JUMPDEST DUP3 ADD SWAP2 SWAP1 PUSH0 MSTORE PUSH1 0x20 PUSH0 KECCAK256 SWAP1 JUMPDEST DUP2 SLOAD DUP2 MSTORE SWAP1 PUSH1 0x1 ADD SWAP1 PUSH1 0x20 ADD DUP1 DUP4 GT PUSH2 0x26A JUMPI DUP3 SWAP1 SUB PUSH1 0x1F AND DUP3 ADD SWAP2 JUMPDEST POP POP POP POP POP SWAP1 DUP1 PUSH1 0x3 ADD DUP1 SLOAD PUSH2 0x29C SWAP1 PUSH2 0x7AC JUMP JUMPDEST DUP1 PUSH1 0x1F ADD PUSH1 0x20 DUP1 SWAP2 DIV MUL PUSH1 0x20 ADD PUSH1 0x40 MLOAD SWAP1 DUP2 ADD PUSH1 0x40 MSTORE DUP1 SWAP3 SWAP2 SWAP1 DUP2 DUP2 MSTORE PUSH1 0x20 ADD DUP3 DUP1 SLOAD PUSH2 0x2C8 SWAP1 PUSH2 0x7AC JUMP JUMPDEST DUP1 ISZERO PUSH2 0x313 JUMPI DUP1 PUSH1 0x1F LT PUSH2 0x2EA JUMPI PUSH2 0x100 DUP1 DUP4 SLOAD DIV MUL DUP4 MSTORE SWAP2 PUSH1 0x20 ADD SWAP2 PUSH2 0x313 JUMP JUMPDEST DUP3 ADD SWAP2 SWAP1 PUSH0 MSTORE PUSH1 0x20 PUSH0 KECCAK256 SWAP1 JUMPDEST DUP2 SLOAD DUP2 MSTORE SWAP1 PUSH1 0x1 ADD SWAP1 PUSH1 0x20 ADD DUP1 DUP4 GT PUSH2 0x2F6 JUMPI DUP3 SWAP1 SUB PUSH1 0x1F AND DUP3 ADD SWAP2 JUMPDEST POP POP POP POP POP SWAP1 POP DUP5 JUMP JUMPDEST PUSH1 0x2 PUSH1 0x40 MLOAD DUP1 PUSH1 0x80 ADD PUSH1 0x40 MSTORE DUP1 DUP6 DUP2 MSTORE PUSH1 0x20 ADD DUP7 DUP2 MSTORE PUSH1 0x20 ADD DUP5 DUP2 MSTORE PUSH1 0x20 ADD DUP4 DUP2 MSTORE POP SWAP1 DUP1 PUSH1 0x1 DUP2 SLOAD ADD DUP1 DUP3 SSTORE DUP1 SWAP2 POP POP PUSH1 0x1 SWAP1 SUB SWAP1 PUSH0 MSTORE PUSH1 0x20 PUSH0 KECCAK256 SWAP1 PUSH1 0x4 MUL ADD PUSH0 SWAP1 SWAP2 SWAP1 SWAP2 SWAP1 SWAP2 POP PUSH0 DUP3 ADD MLOAD DUP2 PUSH0 ADD SSTORE PUSH1 0x20 DUP3 ADD MLOAD DUP2 PUSH1 0x1 ADD SWAP1 DUP2 PUSH2 0x383 SWAP2 SWAP1 PUSH2 0x979 JUMP JUMPDEST POP PUSH1 0x40 DUP3 ADD MLOAD DUP2 PUSH1 0x2 ADD SWAP1 DUP2 PUSH2 0x399 SWAP2 SWAP1 PUSH2 0x979 JUMP JUMPDEST POP PUSH1 0x60 DUP3 ADD MLOAD DUP2 PUSH1 0x3 ADD SWAP1 DUP2 PUSH2 0x3AF SWAP2 SWAP1 PUSH2 0x979 JUMP JUMPDEST POP POP POP DUP3 PUSH1 0x1 DUP6 PUSH1 0x40 MLOAD PUSH2 0x3C3 SWAP2 SWAP1 PUSH2 0xA82 JUMP JUMPDEST SWAP1 DUP2 MSTORE PUSH1 0x20 ADD PUSH1 0x40 MLOAD DUP1 SWAP2 SUB SWAP1 KECCAK256 DUP2 SWAP1 SSTORE POP POP POP POP POP JUMP JUMPDEST PUSH0 DUP2 SWAP1 POP SWAP2 SWAP1 POP JUMP JUMPDEST PUSH2 0x3ED DUP2 PUSH2 0x3DB JUMP JUMPDEST DUP3 MSTORE POP POP JUMP JUMPDEST PUSH0 PUSH1 0x20 DUP3 ADD SWAP1 POP PUSH2 0x406 PUSH0 DUP4 ADD DUP5 PUSH2 0x3E4 JUMP JUMPDEST SWAP3 SWAP2 POP POP JUMP JUMPDEST PUSH0 PUSH1 0x40 MLOAD SWAP1 POP SWAP1 JUMP JUMPDEST PUSH0 DUP1 REVERT JUMPDEST PUSH0 DUP1 REVERT JUMPDEST PUSH2 0x426 DUP2 PUSH2 0x3DB JUMP JUMPDEST DUP2 EQ PUSH2 0x430 JUMPI PUSH0 DUP1 REVERT JUMPDEST POP JUMP JUMPDEST PUSH0 DUP2 CALLDATALOAD SWAP1 POP PUSH2 0x441 DUP2 PUSH2 0x41D JUMP JUMPDEST SWAP3 SWAP2 POP POP JUMP JUMPDEST PUSH0 PUSH1 0x20 DUP3 DUP5 SUB SLT ISZERO PUSH2 0x45C JUMPI PUSH2 0x45B PUSH2 0x415 JUMP JUMPDEST JUMPDEST PUSH0 PUSH2 0x469 DUP5 DUP3 DUP6 ADD PUSH2 0x433 JUMP JUMPDEST SWAP2 POP POP SWAP3 SWAP2 POP POP JUMP JUMPDEST PUSH0 DUP1 REVERT JUMPDEST PUSH0 DUP1 REVERT JUMPDEST PUSH0 PUSH1 0x1F NOT PUSH1 0x1F DUP4 ADD AND SWAP1 POP SWAP2 SWAP1 POP JUMP JUMPDEST PUSH32 0x4E487B7100000000000000000000000000000000000000000000000000000000 PUSH0 MSTORE PUSH1 0x41 PUSH1 0x4 MSTORE PUSH1 0x24 PUSH0 REVERT JUMPDEST PUSH2 0x4C0 DUP3 PUSH2 0x47A JUMP JUMPDEST DUP2 ADD DUP2 DUP2 LT PUSH8 0xFFFFFFFFFFFFFFFF DUP3 GT OR ISZERO PUSH2 0x4DF JUMPI PUSH2 0x4DE PUSH2 0x48A JUMP JUMPDEST JUMPDEST DUP1 PUSH1 0x40 MSTORE POP POP POP JUMP JUMPDEST PUSH0 PUSH2 0x4F1 PUSH2 0x40C JUMP JUMPDEST SWAP1 POP PUSH2 0x4FD DUP3 DUP3 PUSH2 0x4B7 JUMP JUMPDEST SWAP2 SWAP1 POP JUMP JUMPDEST PUSH0 PUSH8 0xFFFFFFFFFFFFFFFF DUP3 GT ISZERO PUSH2 0x51C JUMPI PUSH2 0x51B PUSH2 0x48A JUMP JUMPDEST JUMPDEST PUSH2 0x525 DUP3 PUSH2 0x47A JUMP JUMPDEST SWAP1 POP PUSH1 0x20 DUP2 ADD SWAP1 POP SWAP2 SWAP1 POP JUMP JUMPDEST DUP3 DUP2 DUP4 CALLDATACOPY PUSH0 DUP4 DUP4 ADD MSTORE POP POP POP JUMP JUMPDEST PUSH0 PUSH2 0x552 PUSH2 0x54D DUP5 PUSH2 0x502 JUMP JUMPDEST PUSH2 0x4E8 JUMP JUMPDEST SWAP1 POP DUP3 DUP2 MSTORE PUSH1 0x20 DUP2 ADD DUP5 DUP5 DUP5 ADD GT ISZERO PUSH2 0x56E JUMPI PUSH2 0x56D PUSH2 0x476 JUMP JUMPDEST JUMPDEST PUSH2 0x579 DUP5 DUP3 DUP6 PUSH2 0x532 JUMP JUMPDEST POP SWAP4 SWAP3 POP POP POP JUMP JUMPDEST PUSH0 DUP3 PUSH1 0x1F DUP4 ADD SLT PUSH2 0x595 JUMPI PUSH2 0x594 PUSH2 0x472 JUMP JUMPDEST JUMPDEST DUP2 CALLDATALOAD PUSH2 0x5A5 DUP5 DUP3 PUSH1 0x20 DUP7 ADD PUSH2 0x540 JUMP JUMPDEST SWAP2 POP POP SWAP3 SWAP2 POP POP JUMP JUMPDEST PUSH0 PUSH1 0x20 DUP3 DUP5 SUB SLT ISZERO PUSH2 0x5C3 JUMPI PUSH2 0x5C2 PUSH2 0x415 JUMP JUMPDEST JUMPDEST PUSH0 DUP3 ADD CALLDATALOAD PUSH8 0xFFFFFFFFFFFFFFFF DUP2 GT ISZERO PUSH2 0x5E0 JUMPI PUSH2 0x5DF PUSH2 0x419 JUMP JUMPDEST JUMPDEST PUSH2 0x5EC DUP5 DUP3 DUP6 ADD PUSH2 0x581 JUMP JUMPDEST SWAP2 POP POP SWAP3 SWAP2 POP POP JUMP JUMPDEST PUSH0 DUP2 MLOAD SWAP1 POP SWAP2 SWAP1 POP JUMP JUMPDEST PUSH0 DUP3 DUP3 MSTORE PUSH1 0x20 DUP3 ADD SWAP1 POP SWAP3 SWAP2 POP POP JUMP JUMPDEST PUSH0 JUMPDEST DUP4 DUP2 LT ISZERO PUSH2 0x62C JUMPI DUP1 DUP3 ADD MLOAD DUP2 DUP5 ADD MSTORE PUSH1 0x20 DUP2 ADD SWAP1 POP PUSH2 0x611 JUMP JUMPDEST PUSH0 DUP5 DUP5 ADD MSTORE POP POP POP POP JUMP JUMPDEST PUSH0 PUSH2 0x641 DUP3 PUSH2 0x5F5 JUMP JUMPDEST PUSH2 0x64B DUP2 DUP6 PUSH2 0x5FF JUMP JUMPDEST SWAP4 POP PUSH2 0x65B DUP2 DUP6 PUSH1 0x20 DUP7 ADD PUSH2 0x60F JUMP JUMPDEST PUSH2 0x664 DUP2 PUSH2 0x47A JUMP JUMPDEST DUP5 ADD SWAP2 POP POP SWAP3 SWAP2 POP POP JUMP JUMPDEST PUSH0 PUSH1 0x80 DUP3 ADD SWAP1 POP PUSH2 0x682 PUSH0 DUP4 ADD DUP8 PUSH2 0x3E4 JUMP JUMPDEST DUP2 DUP2 SUB PUSH1 0x20 DUP4 ADD MSTORE PUSH2 0x694 DUP2 DUP7 PUSH2 0x637 JUMP JUMPDEST SWAP1 POP DUP2 DUP2 SUB PUSH1 0x40 DUP4 ADD MSTORE PUSH2 0x6A8 DUP2 DUP6 PUSH2 0x637 JUMP JUMPDEST SWAP1 POP DUP2 DUP2 SUB PUSH1 0x60 DUP4 ADD MSTORE PUSH2 0x6BC DUP2 DUP5 PUSH2 0x637 JUMP JUMPDEST SWAP1 POP SWAP6 SWAP5 POP POP POP POP POP JUMP JUMPDEST PUSH0 DUP1 PUSH0 DUP1 PUSH1 0x80 DUP6 DUP8 SUB SLT ISZERO PUSH2 0x6DF JUMPI PUSH2 0x6DE PUSH2 0x415 JUMP JUMPDEST JUMPDEST PUSH0 DUP6 ADD CALLDATALOAD PUSH8 0xFFFFFFFFFFFFFFFF DUP2 GT ISZERO PUSH2 0x6FC JUMPI PUSH2 0x6FB PUSH2 0x419 JUMP JUMPDEST JUMPDEST PUSH2 0x708 DUP8 DUP3 DUP9 ADD PUSH2 0x581 JUMP JUMPDEST SWAP5 POP POP PUSH1 0x20 PUSH2 0x719 DUP8 DUP3 DUP9 ADD PUSH2 0x433 JUMP JUMPDEST SWAP4 POP POP PUSH1 0x40 DUP6 ADD CALLDATALOAD PUSH8 0xFFFFFFFFFFFFFFFF DUP2 GT ISZERO PUSH2 0x73A JUMPI PUSH2 0x739 PUSH2 0x419 JUMP JUMPDEST JUMPDEST PUSH2 0x746 DUP8 DUP3 DUP9 ADD PUSH2 0x581 JUMP JUMPDEST SWAP3 POP POP PUSH1 0x60 DUP6 ADD CALLDATALOAD PUSH8 0xFFFFFFFFFFFFFFFF DUP2 GT ISZERO PUSH2 0x767 JUMPI PUSH2 0x766 PUSH2 0x419 JUMP JUMPDEST JUMPDEST PUSH2 0x773 DUP8 DUP3 DUP9 ADD PUSH2 0x581 JUMP JUMPDEST SWAP2 POP POP SWAP3 SWAP6 SWAP2 SWAP5 POP SWAP3 POP JUMP JUMPDEST PUSH32 0x4E487B7100000000000000000000000000000000000000000000000000000000 PUSH0 MSTORE PUSH1 0x22 PUSH1 0x4 MSTORE PUSH1 0x24 PUSH0 REVERT JUMPDEST PUSH0 PUSH1 0x2 DUP3 DIV SWAP1 POP PUSH1 0x1 DUP3 AND DUP1 PUSH2 0x7C3 JUMPI PUSH1 0x7F DUP3 AND SWAP2 POP JUMPDEST PUSH1 0x20 DUP3 LT DUP2 SUB PUSH2 0x7D6 JUMPI PUSH2 0x7D5 PUSH2 0x77F JUMP JUMPDEST JUMPDEST POP SWAP2 SWAP1 POP JUMP JUMPDEST PUSH0 DUP2 SWAP1 POP DUP2 PUSH0 MSTORE PUSH1 0x20 PUSH0 KECCAK256 SWAP1 POP SWAP2 SWAP1 POP JUMP JUMPDEST PUSH0 PUSH1 0x20 PUSH1 0x1F DUP4 ADD DIV SWAP1 POP SWAP2 SWAP1 POP JUMP JUMPDEST PUSH0 DUP3 DUP3 SHL SWAP1 POP SWAP3 SWAP2 POP POP JUMP JUMPDEST PUSH0 PUSH1 0x8 DUP4 MUL PUSH2 0x838 PUSH32 0xFFFFFFFFFFFFFFFFFFFFFFFFFFFFFFFFFFFFFFFFFFFFFFFFFFFFFFFFFFFFFFFF DUP3 PUSH2 0x7FD JUMP JUMPDEST PUSH2 0x842 DUP7 DUP4 PUSH2 0x7FD JUMP JUMPDEST SWAP6 POP DUP1 NOT DUP5 AND SWAP4 POP DUP1 DUP7 AND DUP5 OR SWAP3 POP POP POP SWAP4 SWAP3 POP POP POP JUMP JUMPDEST PUSH0 DUP2 SWAP1 POP SWAP2 SWAP1 POP JUMP JUMPDEST PUSH0 PUSH2 0x87D PUSH2 0x878 PUSH2 0x873 DUP5 PUSH2 0x3DB JUMP JUMPDEST PUSH2 0x85A JUMP JUMPDEST PUSH2 0x3DB JUMP JUMPDEST SWAP1 POP SWAP2 SWAP1 POP JUMP JUMPDEST PUSH0 DUP2 SWAP1 POP SWAP2 SWAP1 POP JUMP JUMPDEST PUSH2 0x896 DUP4 PUSH2 0x863 JUMP JUMPDEST PUSH2 0x8AA PUSH2 0x8A2 DUP3 PUSH2 0x884 JUMP JUMPDEST DUP5 DUP5 SLOAD PUSH2 0x809 JUMP JUMPDEST DUP3 SSTORE POP POP POP POP JUMP JUMPDEST PUSH0 SWAP1 JUMP JUMPDEST PUSH2 0x8BE PUSH2 0x8B2 JUMP JUMPDEST PUSH2 0x8C9 DUP2 DUP5 DUP5 PUSH2 0x88D JUMP JUMPDEST POP POP POP JUMP JUMPDEST JUMPDEST DUP2 DUP2 LT ISZERO PUSH2 0x8EC JUMPI PUSH2 0x8E1 PUSH0 DUP3 PUSH2 0x8B6 JUMP JUMPDEST PUSH1 0x1 DUP2 ADD SWAP1 POP PUSH2 0x8CF JUMP JUMPDEST POP POP JUMP JUMPDEST PUSH1 0x1F DUP3 GT ISZERO PUSH2 0x931 JUMPI PUSH2 0x902 DUP2 PUSH2 0x7DC JUMP JUMPDEST PUSH2 0x90B DUP5 PUSH2 0x7EE JUMP JUMPDEST DUP2 ADD PUSH1 0x20 DUP6 LT ISZERO PUSH2 0x91A JUMPI DUP2 SWAP1 POP JUMPDEST PUSH2 0x92E PUSH2 0x926 DUP6 PUSH2 0x7EE JUMP JUMPDEST DUP4 ADD DUP3 PUSH2 0x8CE JUMP JUMPDEST POP POP JUMPDEST POP POP POP JUMP JUMPDEST PUSH0 DUP3 DUP3 SHR SWAP1 POP SWAP3 SWAP2 POP POP JUMP JUMPDEST PUSH0 PUSH2 0x951 PUSH0 NOT DUP5 PUSH1 0x8 MUL PUSH2 0x936 JUMP JUMPDEST NOT DUP1 DUP4 AND SWAP2 POP POP SWAP3 SWAP2 POP POP JUMP JUMPDEST PUSH0 PUSH2 0x969 DUP4 DUP4 PUSH2 0x942 JUMP JUMPDEST SWAP2 POP DUP3 PUSH1 0x2 MUL DUP3 OR SWAP1 POP SWAP3 SWAP2 POP POP JUMP JUMPDEST PUSH2 0x982 DUP3 PUSH2 0x5F5 JUMP JUMPDEST PUSH8 0xFFFFFFFFFFFFFFFF DUP2 GT ISZERO PUSH2 0x99B JUMPI PUSH2 0x99A PUSH2 0x48A JUMP JUMPDEST JUMPDEST PUSH2 0x9A5 DUP3 SLOAD PUSH2 0x7AC JUMP JUMPDEST PUSH2 0x9B0 DUP3 DUP3 DUP6 PUSH2 0x8F0 JUMP JUMPDEST PUSH0 PUSH1 0x20 SWAP1 POP PUSH1 0x1F DUP4 GT PUSH1 0x1 DUP2 EQ PUSH2 0x9E1 JUMPI PUSH0 DUP5 ISZERO PUSH2 0x9CF JUMPI DUP3 DUP8 ADD MLOAD SWAP1 POP JUMPDEST PUSH2 0x9D9 DUP6 DUP3 PUSH2 0x95E JUMP JUMPDEST DUP7 SSTORE POP PUSH2 0xA40 JUMP JUMPDEST PUSH1 0x1F NOT DUP5 AND PUSH2 0x9EF DUP7 PUSH2 0x7DC JUMP JUMPDEST PUSH0 JUMPDEST DUP3 DUP2 LT ISZERO PUSH2 0xA16 JUMPI DUP5 DUP10 ADD MLOAD DUP3 SSTORE PUSH1 0x1 DUP3 ADD SWAP2 POP PUSH1 0x20 DUP6 ADD SWAP5 POP PUSH1 0x20 DUP2 ADD SWAP1 POP PUSH2 0x9F1 JUMP JUMPDEST DUP7 DUP4 LT ISZERO PUSH2 0xA33 JUMPI DUP5 DUP10 ADD MLOAD PUSH2 0xA2F PUSH1 0x1F DUP10 AND DUP3 PUSH2 0x942 JUMP JUMPDEST DUP4 SSTORE POP JUMPDEST PUSH1 0x1 PUSH1 0x2 DUP9 MUL ADD DUP9 SSTORE POP POP POP JUMPDEST POP POP POP POP POP POP JUMP JUMPDEST PUSH0 DUP2 SWAP1 POP SWAP3 SWAP2 POP POP JUMP JUMPDEST PUSH0 PUSH2 0xA5C DUP3 PUSH2 0x5F5 JUMP JUMPDEST PUSH2 0xA66 DUP2 DUP6 PUSH2 0xA48 JUMP JUMPDEST SWAP4 POP PUSH2 0xA76 DUP2 DUP6 PUSH1 0x20 DUP7 ADD PUSH2 0x60F JUMP JUMPDEST DUP1 DUP5 ADD SWAP2 POP POP SWAP3 SWAP2 POP POP JUMP JUMPDEST PUSH0 PUSH2 0xA8D DUP3 DUP5 PUSH2 0xA52 JUMP JUMPDEST SWAP2 POP DUP2 SWAP1 POP SWAP3 SWAP2 POP POP JUMP INVALID LOG2 PUSH5 0x6970667358 0x22 SLT KECCAK256 GAS 0xE4 JUMP PUSH11 0x7CD47EDF6C38B25C18641D DUP8 SWAP5 0xD1 PUSH12 0xF3AE74E9CD924F9510CBD40B LT PUSH5 0x736F6C6343 STOP ADDMOD AND STOP CALLER "
				},
				"gasEstimates": {
					"creation": {
						"codeDepositCost": "553200",
						"executionCost": "585",
						"totalCost": "553785"
					},
					"external": {
						"addPerson(string,uint256,string,string)": "infinite",
						"nameToFavoriteNumber(string)": "infinite",
						"people(uint256)": "infinite",
						"retrieve()": "2410",
						"store(uint256)": "22514"
					}
				},
				"methodIdentifiers": {
					"addPerson(string,uint256,string,string)": "9f8c5108",
					"nameToFavoriteNumber(string)": "8bab8dd5",
					"people(uint256)": "9e7a13ad",
					"retrieve()": "2e64cec1",
					"store(uint256)": "6057361d"
				}
			},
			"storageLayout": {
				"storage": [
					{
						"astId": 22,
						"contract": "contracts/SimpleStorage.sol:SimpleStorage",
						"label": "favoriteNumber",
						"offset": 0,
						"slot": "0",
						"type": "t_uint256"
					},
					{
						"astId": 26,
						"contract": "contracts/SimpleStorage.sol:SimpleStorage",
						"label": "nameToFavoriteNumber",
						"offset": 0,
						"slot": "1",
						"type": "t_mapping(t_string_memory_ptr,t_uint256)"
					},
					{
						"astId": 39,
						"contract": "contracts/SimpleStorage.sol:SimpleStorage",
						"label": "people",
						"offset": 0,
						"slot": "2",
						"type": "t_array(t_struct(People)35_storage)dyn_storage"
					}
				],
				"types": {
					"t_array(t_struct(People)35_storage)dyn_storage": {
						"base": "t_struct(People)35_storage",
						"encoding": "dynamic_array",
						"label": "struct SimpleStorage.People[]",
						"numberOfBytes": "32"
					},
					"t_mapping(t_string_memory_ptr,t_uint256)": {
						"encoding": "mapping",
						"key": "t_string_memory_ptr",
						"label": "mapping(string => uint256)",
						"numberOfBytes": "32",
						"value": "t_uint256"
					},
					"t_string_memory_ptr": {
						"encoding": "bytes",
						"label": "string",
						"numberOfBytes": "32"
					},
					"t_string_storage": {
						"encoding": "bytes",
						"label": "string",
						"numberOfBytes": "32"
					},
					"t_struct(People)35_storage": {
						"encoding": "inplace",
						"label": "struct SimpleStorage.People",
						"members": [
							{
								"astId": 28,
								"contract": "contracts/SimpleStorage.sol:SimpleStorage",
								"label": "favoriteNumber",
								"offset": 0,
								"slot": "0",
								"type": "t_uint256"
							},
							{
								"astId": 30,
								"contract": "contracts/SimpleStorage.sol:SimpleStorage",
								"label": "name",
								"offset": 0,
								"slot": "1",
								"type": "t_string_storage"
							},
							{
								"astId": 32,
								"contract": "contracts/SimpleStorage.sol:SimpleStorage",
								"label": "favColor",
								"offset": 0,
								"slot": "2",
								"type": "t_string_storage"
							},
							{
								"astId": 34,
								"contract": "contracts/SimpleStorage.sol:SimpleStorage",
								"label": "hobbies",
								"offset": 0,
								"slot": "3",
								"type": "t_string_storage"
							}
						],
						"numberOfBytes": "128"
					},
					"t_uint256": {
						"encoding": "inplace",
						"label": "uint256",
						"numberOfBytes": "32"
					}
				}
			},
			"userdoc": {
				"kind": "user",
				"methods": {},
				"version": 1
			}
		}
	}
}