{
	"contracts/FundMe.sol": {
		"FundMe": {
			"abi": [
				{
					"inputs": [],
					"name": "fund",
					"outputs": [],
					"stateMutability": "payable",
					"type": "function"
				},
				{
					"inputs": [],
					"name": "getConversionRate",
					"outputs": [],
					"stateMutability": "nonpayable",
					"type": "function"
				},
				{
					"inputs": [],
					"name": "getPrice",
					"outputs": [
						{
							"internalType": "uint256",
							"name": "",
							"type": "uint256"
						}
					],
					"stateMutability": "view",
					"type": "function"
				},
				{
					"inputs": [],
					"name": "getVersion",
					"outputs": [
						{
							"internalType": "uint256",
							"name": "",
							"type": "uint256"
						}
					],
					"stateMutability": "view",
					"type": "function"
				},
				{
					"inputs": [],
					"name": "minimumUsd",
					"outputs": [
						{
							"internalType": "uint256",
							"name": "",
							"type": "uint256"
						}
					],
					"stateMutability": "view",
					"type": "function"
				}
			],
			"devdoc": {
				"kind": "dev",
				"methods": {},
				"version": 1
			},
			"evm": {
				"assembly": "    /* \"contracts/FundMe.sol\":216:1626  contract FundMe {... */\n  mstore(0x40, 0x80)\n    /* \"contracts/FundMe.sol\":266:268  50 */\n  0x32\n    /* \"contracts/FundMe.sol\":238:268  uint256 public minimumUsd = 50 */\n  0x00\n  sstore\n    /* \"contracts/FundMe.sol\":216:1626  contract FundMe {... */\n  callvalue\n  dup1\n  iszero\n  tag_1\n  jumpi\n  0x00\n  dup1\n  revert\ntag_1:\n  pop\n  dataSize(sub_0)\n  dup1\n  dataOffset(sub_0)\n  0x00\n  codecopy\n  0x00\n  return\nstop\n\nsub_0: assembly {\n        /* \"contracts/FundMe.sol\":216:1626  contract FundMe {... */\n      mstore(0x40, 0x80)\n      jumpi(tag_1, lt(calldatasize, 0x04))\n      shr(0xe0, calldataload(0x00))\n      dup1\n      0x098de820\n      eq\n      tag_2\n      jumpi\n      dup1\n      0x0d8e6e2c\n      eq\n      tag_3\n      jumpi\n      dup1\n      0x98d5fdca\n      eq\n      tag_4\n      jumpi\n      dup1\n      0xb60d4288\n      eq\n      tag_5\n      jumpi\n      dup1\n      0xf36089ec\n      eq\n      tag_6\n      jumpi\n    tag_1:\n      0x00\n      dup1\n      revert\n        /* \"contracts/FundMe.sol\":238:268  uint256 public minimumUsd = 50 */\n    tag_2:\n      callvalue\n      dup1\n      iszero\n      tag_7\n      jumpi\n      0x00\n      dup1\n      revert\n    tag_7:\n      pop\n      tag_8\n      tag_9\n      jump\t// in\n    tag_8:\n      mload(0x40)\n      tag_10\n      swap2\n      swap1\n      tag_11\n      jump\t// in\n    tag_10:\n      mload(0x40)\n      dup1\n      swap2\n      sub\n      swap1\n      return\n        /* \"contracts/FundMe.sol\":1346:1550  function getVersion() public view returns (uint256) {... */\n    tag_3:\n      callvalue\n      dup1\n      iszero\n      tag_12\n      jumpi\n      0x00\n      dup1\n      revert\n    tag_12:\n      pop\n      tag_13\n      tag_14\n      jump\t// in\n    tag_13:\n      mload(0x40)\n      tag_15\n      swap2\n      swap1\n      tag_11\n      jump\t// in\n    tag_15:\n      mload(0x40)\n      dup1\n      swap2\n      sub\n      swap1\n      return\n        /* \"contracts/FundMe.sol\":564:908  function getPrice() public view returns (uint256) {... */\n    tag_4:\n      callvalue\n      dup1\n      iszero\n      tag_16\n      jumpi\n      0x00\n      dup1\n      revert\n    tag_16:\n      pop\n      tag_17\n      tag_18\n      jump\t// in\n    tag_17:\n      mload(0x40)\n      tag_19\n      swap2\n      swap1\n      tag_11\n      jump\t// in\n    tag_19:\n      mload(0x40)\n      dup1\n      swap2\n      sub\n      swap1\n      return\n        /* \"contracts/FundMe.sol\":275:554  function fund() public payable {... */\n    tag_5:\n      tag_20\n      tag_21\n      jump\t// in\n    tag_20:\n      stop\n        /* \"contracts/FundMe.sol\":1556:1594  function getConversionRate() public {} */\n    tag_6:\n      callvalue\n      dup1\n      iszero\n      tag_22\n      jumpi\n      0x00\n      dup1\n      revert\n    tag_22:\n      pop\n      tag_23\n      tag_24\n      jump\t// in\n    tag_23:\n      stop\n        /* \"contracts/FundMe.sol\":238:268  uint256 public minimumUsd = 50 */\n    tag_9:\n      sload(0x00)\n      dup2\n      jump\t// out\n        /* \"contracts/FundMe.sol\":1346:1550  function getVersion() public view returns (uint256) {... */\n    tag_14:\n        /* \"contracts/FundMe.sol\":1389:1396  uint256 */\n      0x00\n        /* \"contracts/FundMe.sol\":1408:1439  AggregatorV3Interface priceFeed */\n      dup1\n        /* \"contracts/FundMe.sol\":1464:1506  0x694AA1769357215DE4FAC081bf1f309aDC325306 */\n      0x694aa1769357215de4fac081bf1f309adc325306\n        /* \"contracts/FundMe.sol\":1408:1507  AggregatorV3Interface priceFeed = AggregatorV3Interface(0x694AA1769357215DE4FAC081bf1f309aDC325306) */\n      swap1\n      pop\n        /* \"contracts/FundMe.sol\":1524:1533  priceFeed */\n      dup1\n        /* \"contracts/FundMe.sol\":1524:1541  priceFeed.version */\n      0xffffffffffffffffffffffffffffffffffffffff\n      and\n      0x54fd4d50\n        /* \"contracts/FundMe.sol\":1524:1543  priceFeed.version() */\n      mload(0x40)\n      dup2\n      0xffffffff\n      and\n      0xe0\n      shl\n      dup2\n      mstore\n      0x04\n      add\n      0x20\n      mload(0x40)\n      dup1\n      dup4\n      sub\n      dup2\n      dup7\n      gas\n      staticcall\n      iszero\n      dup1\n      iszero\n      tag_27\n      jumpi\n      returndatasize\n      0x00\n      dup1\n      returndatacopy\n      revert(0x00, returndatasize)\n    tag_27:\n      pop\n      pop\n      pop\n      pop\n      mload(0x40)\n      returndatasize\n      not(0x1f)\n      0x1f\n      dup3\n      add\n      and\n      dup3\n      add\n      dup1\n      0x40\n      mstore\n      pop\n      dup2\n      add\n      swap1\n      tag_28\n      swap2\n      swap1\n      tag_29\n      jump\t// in\n    tag_28:\n        /* \"contracts/FundMe.sol\":1517:1543  return priceFeed.version() */\n      swap2\n      pop\n      pop\n        /* \"contracts/FundMe.sol\":1346:1550  function getVersion() public view returns (uint256) {... */\n      swap1\n      jump\t// out\n        /* \"contracts/FundMe.sol\":564:908  function getPrice() public view returns (uint256) {... */\n    tag_18:\n        /* \"contracts/FundMe.sol\":605:612  uint256 */\n      0x00\n        /* \"contracts/FundMe.sol\":624:655  AggregatorV3Interface priceFeed */\n      dup1\n        /* \"contracts/FundMe.sol\":680:722  0x694AA1769357215DE4FAC081bf1f309aDC325306 */\n      0x694aa1769357215de4fac081bf1f309adc325306\n        /* \"contracts/FundMe.sol\":624:723  AggregatorV3Interface priceFeed = AggregatorV3Interface(0x694AA1769357215DE4FAC081bf1f309aDC325306) */\n      swap1\n      pop\n        /* \"contracts/FundMe.sol\":735:747  int256 price */\n      0x00\n        /* \"contracts/FundMe.sol\":754:763  priceFeed */\n      dup2\n        /* \"contracts/FundMe.sol\":754:779  priceFeed.latestRoundData */\n      0xffffffffffffffffffffffffffffffffffffffff\n      and\n      0xfeaf968c\n        /* \"contracts/FundMe.sol\":754:781  priceFeed.latestRoundData() */\n      mload(0x40)\n      dup2\n      0xffffffff\n      and\n      0xe0\n      shl\n      dup2\n      mstore\n      0x04\n      add\n      0xa0\n      mload(0x40)\n      dup1\n      dup4\n      sub\n      dup2\n      dup7\n      gas\n      staticcall\n      iszero\n      dup1\n      iszero\n      tag_32\n      jumpi\n      returndatasize\n      0x00\n      dup1\n      returndatacopy\n      revert(0x00, returndatasize)\n    tag_32:\n      pop\n      pop\n      pop\n      pop\n      mload(0x40)\n      returndatasize\n      not(0x1f)\n      0x1f\n      dup3\n      add\n      and\n      dup3\n      add\n      dup1\n      0x40\n      mstore\n      pop\n      dup2\n      add\n      swap1\n      tag_33\n      swap2\n      swap1\n      tag_34\n      jump\t// in\n    tag_33:\n        /* \"contracts/FundMe.sol\":733:781  (,int256 price,,,) = priceFeed.latestRoundData() */\n      pop\n      pop\n      pop\n      swap2\n      pop\n      pop\n        /* \"contracts/FundMe.sol\":872:876  1e10 */\n      0x02540be400\n        /* \"contracts/FundMe.sol\":864:869  price */\n      dup2\n        /* \"contracts/FundMe.sol\":864:876  price * 1e10 */\n      tag_35\n      swap2\n      swap1\n      tag_36\n      jump\t// in\n    tag_35:\n        /* \"contracts/FundMe.sol\":849:877  return uint256(price * 1e10) */\n      swap3\n      pop\n      pop\n      pop\n        /* \"contracts/FundMe.sol\":564:908  function getPrice() public view returns (uint256) {... */\n      swap1\n      jump\t// out\n        /* \"contracts/FundMe.sol\":275:554  function fund() public payable {... */\n    tag_21:\n        /* \"contracts/FundMe.sol\":450:460  minimumUsd */\n      sload(0x00)\n        /* \"contracts/FundMe.sol\":437:446  msg.value */\n      callvalue\n        /* \"contracts/FundMe.sol\":437:460  msg.value >= minimumUsd */\n      lt\n      iszero\n        /* \"contracts/FundMe.sol\":429:484  require(msg.value >= minimumUsd, \"Didn't send enough!\") */\n      tag_38\n      jumpi\n      mload(0x40)\n      0x08c379a000000000000000000000000000000000000000000000000000000000\n      dup2\n      mstore\n      0x04\n      add\n      tag_39\n      swap1\n      tag_40\n      jump\t// in\n    tag_39:\n      mload(0x40)\n      dup1\n      swap2\n      sub\n      swap1\n      revert\n    tag_38:\n        /* \"contracts/FundMe.sol\":275:554  function fund() public payable {... */\n      jump\t// out\n        /* \"contracts/FundMe.sol\":1556:1594  function getConversionRate() public {} */\n    tag_24:\n      jump\t// out\n        /* \"#utility.yul\":7:84   */\n    tag_42:\n        /* \"#utility.yul\":44:51   */\n      0x00\n        /* \"#utility.yul\":73:78   */\n      dup2\n        /* \"#utility.yul\":62:78   */\n      swap1\n      pop\n        /* \"#utility.yul\":7:84   */\n      swap2\n      swap1\n      pop\n      jump\t// out\n        /* \"#utility.yul\":90:208   */\n    tag_43:\n        /* \"#utility.yul\":177:201   */\n      tag_62\n        /* \"#utility.yul\":195:200   */\n      dup2\n        /* \"#utility.yul\":177:201   */\n      tag_42\n      jump\t// in\n    tag_62:\n        /* \"#utility.yul\":172:175   */\n      dup3\n        /* \"#utility.yul\":165:202   */\n      mstore\n        /* \"#utility.yul\":90:208   */\n      pop\n      pop\n      jump\t// out\n        /* \"#utility.yul\":214:436   */\n    tag_11:\n        /* \"#utility.yul\":307:311   */\n      0x00\n        /* \"#utility.yul\":345:347   */\n      0x20\n        /* \"#utility.yul\":334:343   */\n      dup3\n        /* \"#utility.yul\":330:348   */\n      add\n        /* \"#utility.yul\":322:348   */\n      swap1\n      pop\n        /* \"#utility.yul\":358:429   */\n      tag_64\n        /* \"#utility.yul\":426:427   */\n      0x00\n        /* \"#utility.yul\":415:424   */\n      dup4\n        /* \"#utility.yul\":411:428   */\n      add\n        /* \"#utility.yul\":402:408   */\n      dup5\n        /* \"#utility.yul\":358:429   */\n      tag_43\n      jump\t// in\n    tag_64:\n        /* \"#utility.yul\":214:436   */\n      swap3\n      swap2\n      pop\n      pop\n      jump\t// out\n        /* \"#utility.yul\":523:640   */\n    tag_45:\n        /* \"#utility.yul\":632:633   */\n      0x00\n        /* \"#utility.yul\":629:630   */\n      dup1\n        /* \"#utility.yul\":622:634   */\n      revert\n        /* \"#utility.yul\":769:891   */\n    tag_47:\n        /* \"#utility.yul\":842:866   */\n      tag_69\n        /* \"#utility.yul\":860:865   */\n      dup2\n        /* \"#utility.yul\":842:866   */\n      tag_42\n      jump\t// in\n    tag_69:\n        /* \"#utility.yul\":835:840   */\n      dup2\n        /* \"#utility.yul\":832:867   */\n      eq\n        /* \"#utility.yul\":822:885   */\n      tag_70\n      jumpi\n        /* \"#utility.yul\":881:882   */\n      0x00\n        /* \"#utility.yul\":878:879   */\n      dup1\n        /* \"#utility.yul\":871:883   */\n      revert\n        /* \"#utility.yul\":822:885   */\n    tag_70:\n        /* \"#utility.yul\":769:891   */\n      pop\n      jump\t// out\n        /* \"#utility.yul\":897:1040   */\n    tag_48:\n        /* \"#utility.yul\":954:959   */\n      0x00\n        /* \"#utility.yul\":985:991   */\n      dup2\n        /* \"#utility.yul\":979:992   */\n      mload\n        /* \"#utility.yul\":970:992   */\n      swap1\n      pop\n        /* \"#utility.yul\":1001:1034   */\n      tag_72\n        /* \"#utility.yul\":1028:1033   */\n      dup2\n        /* \"#utility.yul\":1001:1034   */\n      tag_47\n      jump\t// in\n    tag_72:\n        /* \"#utility.yul\":897:1040   */\n      swap3\n      swap2\n      pop\n      pop\n      jump\t// out\n        /* \"#utility.yul\":1046:1397   */\n    tag_29:\n        /* \"#utility.yul\":1116:1122   */\n      0x00\n        /* \"#utility.yul\":1165:1167   */\n      0x20\n        /* \"#utility.yul\":1153:1162   */\n      dup3\n        /* \"#utility.yul\":1144:1151   */\n      dup5\n        /* \"#utility.yul\":1140:1163   */\n      sub\n        /* \"#utility.yul\":1136:1168   */\n      slt\n        /* \"#utility.yul\":1133:1252   */\n      iszero\n      tag_74\n      jumpi\n        /* \"#utility.yul\":1171:1250   */\n      tag_75\n      tag_45\n      jump\t// in\n    tag_75:\n        /* \"#utility.yul\":1133:1252   */\n    tag_74:\n        /* \"#utility.yul\":1291:1292   */\n      0x00\n        /* \"#utility.yul\":1316:1380   */\n      tag_76\n        /* \"#utility.yul\":1372:1379   */\n      dup5\n        /* \"#utility.yul\":1363:1369   */\n      dup3\n        /* \"#utility.yul\":1352:1361   */\n      dup6\n        /* \"#utility.yul\":1348:1370   */\n      add\n        /* \"#utility.yul\":1316:1380   */\n      tag_48\n      jump\t// in\n    tag_76:\n        /* \"#utility.yul\":1306:1380   */\n      swap2\n      pop\n        /* \"#utility.yul\":1262:1390   */\n      pop\n        /* \"#utility.yul\":1046:1397   */\n      swap3\n      swap2\n      pop\n      pop\n      jump\t// out\n        /* \"#utility.yul\":1403:1508   */\n    tag_49:\n        /* \"#utility.yul\":1439:1446   */\n      0x00\n        /* \"#utility.yul\":1479:1501   */\n      0xffffffffffffffffffff\n        /* \"#utility.yul\":1472:1477   */\n      dup3\n        /* \"#utility.yul\":1468:1502   */\n      and\n        /* \"#utility.yul\":1457:1502   */\n      swap1\n      pop\n        /* \"#utility.yul\":1403:1508   */\n      swap2\n      swap1\n      pop\n      jump\t// out\n        /* \"#utility.yul\":1514:1634   */\n    tag_50:\n        /* \"#utility.yul\":1586:1609   */\n      tag_79\n        /* \"#utility.yul\":1603:1608   */\n      dup2\n        /* \"#utility.yul\":1586:1609   */\n      tag_49\n      jump\t// in\n    tag_79:\n        /* \"#utility.yul\":1579:1584   */\n      dup2\n        /* \"#utility.yul\":1576:1610   */\n      eq\n        /* \"#utility.yul\":1566:1628   */\n      tag_80\n      jumpi\n        /* \"#utility.yul\":1624:1625   */\n      0x00\n        /* \"#utility.yul\":1621:1622   */\n      dup1\n        /* \"#utility.yul\":1614:1626   */\n      revert\n        /* \"#utility.yul\":1566:1628   */\n    tag_80:\n        /* \"#utility.yul\":1514:1634   */\n      pop\n      jump\t// out\n        /* \"#utility.yul\":1640:1781   */\n    tag_51:\n        /* \"#utility.yul\":1696:1701   */\n      0x00\n        /* \"#utility.yul\":1727:1733   */\n      dup2\n        /* \"#utility.yul\":1721:1734   */\n      mload\n        /* \"#utility.yul\":1712:1734   */\n      swap1\n      pop\n        /* \"#utility.yul\":1743:1775   */\n      tag_82\n        /* \"#utility.yul\":1769:1774   */\n      dup2\n        /* \"#utility.yul\":1743:1775   */\n      tag_50\n      jump\t// in\n    tag_82:\n        /* \"#utility.yul\":1640:1781   */\n      swap3\n      swap2\n      pop\n      pop\n      jump\t// out\n        /* \"#utility.yul\":1787:1863   */\n    tag_52:\n        /* \"#utility.yul\":1823:1830   */\n      0x00\n        /* \"#utility.yul\":1852:1857   */\n      dup2\n        /* \"#utility.yul\":1841:1857   */\n      swap1\n      pop\n        /* \"#utility.yul\":1787:1863   */\n      swap2\n      swap1\n      pop\n      jump\t// out\n        /* \"#utility.yul\":1869:1989   */\n    tag_53:\n        /* \"#utility.yul\":1941:1964   */\n      tag_85\n        /* \"#utility.yul\":1958:1963   */\n      dup2\n        /* \"#utility.yul\":1941:1964   */\n      tag_52\n      jump\t// in\n    tag_85:\n        /* \"#utility.yul\":1934:1939   */\n      dup2\n        /* \"#utility.yul\":1931:1965   */\n      eq\n        /* \"#utility.yul\":1921:1983   */\n      tag_86\n      jumpi\n        /* \"#utility.yul\":1979:1980   */\n      0x00\n        /* \"#utility.yul\":1976:1977   */\n      dup1\n        /* \"#utility.yul\":1969:1981   */\n      revert\n        /* \"#utility.yul\":1921:1983   */\n    tag_86:\n        /* \"#utility.yul\":1869:1989   */\n      pop\n      jump\t// out\n        /* \"#utility.yul\":1995:2136   */\n    tag_54:\n        /* \"#utility.yul\":2051:2056   */\n      0x00\n        /* \"#utility.yul\":2082:2088   */\n      dup2\n        /* \"#utility.yul\":2076:2089   */\n      mload\n        /* \"#utility.yul\":2067:2089   */\n      swap1\n      pop\n        /* \"#utility.yul\":2098:2130   */\n      tag_88\n        /* \"#utility.yul\":2124:2129   */\n      dup2\n        /* \"#utility.yul\":2098:2130   */\n      tag_53\n      jump\t// in\n    tag_88:\n        /* \"#utility.yul\":1995:2136   */\n      swap3\n      swap2\n      pop\n      pop\n      jump\t// out\n        /* \"#utility.yul\":2142:3113   */\n    tag_34:\n        /* \"#utility.yul\":2245:2251   */\n      0x00\n        /* \"#utility.yul\":2253:2259   */\n      dup1\n        /* \"#utility.yul\":2261:2267   */\n      0x00\n        /* \"#utility.yul\":2269:2275   */\n      dup1\n        /* \"#utility.yul\":2277:2283   */\n      0x00\n        /* \"#utility.yul\":2326:2329   */\n      0xa0\n        /* \"#utility.yul\":2314:2323   */\n      dup7\n        /* \"#utility.yul\":2305:2312   */\n      dup9\n        /* \"#utility.yul\":2301:2324   */\n      sub\n        /* \"#utility.yul\":2297:2330   */\n      slt\n        /* \"#utility.yul\":2294:2414   */\n      iszero\n      tag_90\n      jumpi\n        /* \"#utility.yul\":2333:2412   */\n      tag_91\n      tag_45\n      jump\t// in\n    tag_91:\n        /* \"#utility.yul\":2294:2414   */\n    tag_90:\n        /* \"#utility.yul\":2453:2454   */\n      0x00\n        /* \"#utility.yul\":2478:2541   */\n      tag_92\n        /* \"#utility.yul\":2533:2540   */\n      dup9\n        /* \"#utility.yul\":2524:2530   */\n      dup3\n        /* \"#utility.yul\":2513:2522   */\n      dup10\n        /* \"#utility.yul\":2509:2531   */\n      add\n        /* \"#utility.yul\":2478:2541   */\n      tag_51\n      jump\t// in\n    tag_92:\n        /* \"#utility.yul\":2468:2541   */\n      swap6\n      pop\n        /* \"#utility.yul\":2424:2551   */\n      pop\n        /* \"#utility.yul\":2590:2592   */\n      0x20\n        /* \"#utility.yul\":2616:2679   */\n      tag_93\n        /* \"#utility.yul\":2671:2678   */\n      dup9\n        /* \"#utility.yul\":2662:2668   */\n      dup3\n        /* \"#utility.yul\":2651:2660   */\n      dup10\n        /* \"#utility.yul\":2647:2669   */\n      add\n        /* \"#utility.yul\":2616:2679   */\n      tag_54\n      jump\t// in\n    tag_93:\n        /* \"#utility.yul\":2606:2679   */\n      swap5\n      pop\n        /* \"#utility.yul\":2561:2689   */\n      pop\n        /* \"#utility.yul\":2728:2730   */\n      0x40\n        /* \"#utility.yul\":2754:2818   */\n      tag_94\n        /* \"#utility.yul\":2810:2817   */\n      dup9\n        /* \"#utility.yul\":2801:2807   */\n      dup3\n        /* \"#utility.yul\":2790:2799   */\n      dup10\n        /* \"#utility.yul\":2786:2808   */\n      add\n        /* \"#utility.yul\":2754:2818   */\n      tag_48\n      jump\t// in\n    tag_94:\n        /* \"#utility.yul\":2744:2818   */\n      swap4\n      pop\n        /* \"#utility.yul\":2699:2828   */\n      pop\n        /* \"#utility.yul\":2867:2869   */\n      0x60\n        /* \"#utility.yul\":2893:2957   */\n      tag_95\n        /* \"#utility.yul\":2949:2956   */\n      dup9\n        /* \"#utility.yul\":2940:2946   */\n      dup3\n        /* \"#utility.yul\":2929:2938   */\n      dup10\n        /* \"#utility.yul\":2925:2947   */\n      add\n        /* \"#utility.yul\":2893:2957   */\n      tag_48\n      jump\t// in\n    tag_95:\n        /* \"#utility.yul\":2883:2957   */\n      swap3\n      pop\n        /* \"#utility.yul\":2838:2967   */\n      pop\n        /* \"#utility.yul\":3006:3009   */\n      0x80\n        /* \"#utility.yul\":3033:3096   */\n      tag_96\n        /* \"#utility.yul\":3088:3095   */\n      dup9\n        /* \"#utility.yul\":3079:3085   */\n      dup3\n        /* \"#utility.yul\":3068:3077   */\n      dup10\n        /* \"#utility.yul\":3064:3086   */\n      add\n        /* \"#utility.yul\":3033:3096   */\n      tag_51\n      jump\t// in\n    tag_96:\n        /* \"#utility.yul\":3023:3096   */\n      swap2\n      pop\n        /* \"#utility.yul\":2977:3106   */\n      pop\n        /* \"#utility.yul\":2142:3113   */\n      swap3\n      swap6\n      pop\n      swap3\n      swap6\n      swap1\n      swap4\n      pop\n      jump\t// out\n        /* \"#utility.yul\":3119:3299   */\n    tag_55:\n        /* \"#utility.yul\":3167:3244   */\n      0x4e487b7100000000000000000000000000000000000000000000000000000000\n        /* \"#utility.yul\":3164:3165   */\n      0x00\n        /* \"#utility.yul\":3157:3245   */\n      mstore\n        /* \"#utility.yul\":3264:3268   */\n      0x11\n        /* \"#utility.yul\":3261:3262   */\n      0x04\n        /* \"#utility.yul\":3254:3269   */\n      mstore\n        /* \"#utility.yul\":3288:3292   */\n      0x24\n        /* \"#utility.yul\":3285:3286   */\n      0x00\n        /* \"#utility.yul\":3278:3293   */\n      revert\n        /* \"#utility.yul\":3305:3861   */\n    tag_36:\n        /* \"#utility.yul\":3344:3351   */\n      0x00\n        /* \"#utility.yul\":3367:3386   */\n      tag_99\n        /* \"#utility.yul\":3384:3385   */\n      dup3\n        /* \"#utility.yul\":3367:3386   */\n      tag_52\n      jump\t// in\n    tag_99:\n        /* \"#utility.yul\":3362:3386   */\n      swap2\n      pop\n        /* \"#utility.yul\":3400:3419   */\n      tag_100\n        /* \"#utility.yul\":3417:3418   */\n      dup4\n        /* \"#utility.yul\":3400:3419   */\n      tag_52\n      jump\t// in\n    tag_100:\n        /* \"#utility.yul\":3395:3419   */\n      swap3\n      pop\n        /* \"#utility.yul\":3454:3455   */\n      dup3\n        /* \"#utility.yul\":3451:3452   */\n      dup3\n        /* \"#utility.yul\":3447:3456   */\n      mul\n        /* \"#utility.yul\":3476:3505   */\n      tag_101\n        /* \"#utility.yul\":3493:3504   */\n      dup2\n        /* \"#utility.yul\":3476:3505   */\n      tag_52\n      jump\t// in\n    tag_101:\n        /* \"#utility.yul\":3465:3505   */\n      swap2\n      pop\n        /* \"#utility.yul\":3563:3629   */\n      0x8000000000000000000000000000000000000000000000000000000000000000\n        /* \"#utility.yul\":3560:3561   */\n      dup5\n        /* \"#utility.yul\":3557:3630   */\n      eq\n        /* \"#utility.yul\":3553:3554   */\n      0x00\n        /* \"#utility.yul\":3550:3551   */\n      dup5\n        /* \"#utility.yul\":3546:3555   */\n      slt\n        /* \"#utility.yul\":3542:3631   */\n      and\n        /* \"#utility.yul\":3539:3654   */\n      iszero\n      tag_102\n      jumpi\n        /* \"#utility.yul\":3634:3652   */\n      tag_103\n      tag_55\n      jump\t// in\n    tag_103:\n        /* \"#utility.yul\":3539:3654   */\n    tag_102:\n        /* \"#utility.yul\":3804:3805   */\n      dup3\n        /* \"#utility.yul\":3795:3802   */\n      dup3\n        /* \"#utility.yul\":3790:3806   */\n      sdiv\n        /* \"#utility.yul\":3787:3788   */\n      dup5\n        /* \"#utility.yul\":3784:3807   */\n      eq\n        /* \"#utility.yul\":3764:3765   */\n      dup4\n        /* \"#utility.yul\":3757:3766   */\n      iszero\n        /* \"#utility.yul\":3737:3821   */\n      or\n        /* \"#utility.yul\":3714:3854   */\n      tag_104\n      jumpi\n        /* \"#utility.yul\":3834:3852   */\n      tag_105\n      tag_55\n      jump\t// in\n    tag_105:\n        /* \"#utility.yul\":3714:3854   */\n    tag_104:\n        /* \"#utility.yul\":3352:3861   */\n      pop\n        /* \"#utility.yul\":3305:3861   */\n      swap3\n      swap2\n      pop\n      pop\n      jump\t// out\n        /* \"#utility.yul\":3867:4036   */\n    tag_56:\n        /* \"#utility.yul\":3951:3962   */\n      0x00\n        /* \"#utility.yul\":3985:3991   */\n      dup3\n        /* \"#utility.yul\":3980:3983   */\n      dup3\n        /* \"#utility.yul\":3973:3992   */\n      mstore\n        /* \"#utility.yul\":4025:4029   */\n      0x20\n        /* \"#utility.yul\":4020:4023   */\n      dup3\n        /* \"#utility.yul\":4016:4030   */\n      add\n        /* \"#utility.yul\":4001:4030   */\n      swap1\n      pop\n        /* \"#utility.yul\":3867:4036   */\n      swap3\n      swap2\n      pop\n      pop\n      jump\t// out\n        /* \"#utility.yul\":4042:4211   */\n    tag_57:\n        /* \"#utility.yul\":4182:4203   */\n      0x4469646e27742073656e6420656e6f7567682100000000000000000000000000\n        /* \"#utility.yul\":4178:4179   */\n      0x00\n        /* \"#utility.yul\":4170:4176   */\n      dup3\n        /* \"#utility.yul\":4166:4180   */\n      add\n        /* \"#utility.yul\":4159:4204   */\n      mstore\n        /* \"#utility.yul\":4042:4211   */\n      pop\n      jump\t// out\n        /* \"#utility.yul\":4217:4583   */\n    tag_58:\n        /* \"#utility.yul\":4359:4362   */\n      0x00\n        /* \"#utility.yul\":4380:4447   */\n      tag_109\n        /* \"#utility.yul\":4444:4446   */\n      0x13\n        /* \"#utility.yul\":4439:4442   */\n      dup4\n        /* \"#utility.yul\":4380:4447   */\n      tag_56\n      jump\t// in\n    tag_109:\n        /* \"#utility.yul\":4373:4447   */\n      swap2\n      pop\n        /* \"#utility.yul\":4456:4549   */\n      tag_110\n        /* \"#utility.yul\":4545:4548   */\n      dup3\n        /* \"#utility.yul\":4456:4549   */\n      tag_57\n      jump\t// in\n    tag_110:\n        /* \"#utility.yul\":4574:4576   */\n      0x20\n        /* \"#utility.yul\":4569:4572   */\n      dup3\n        /* \"#utility.yul\":4565:4577   */\n      add\n        /* \"#utility.yul\":4558:4577   */\n      swap1\n      pop\n        /* \"#utility.yul\":4217:4583   */\n      swap2\n      swap1\n      pop\n      jump\t// out\n        /* \"#utility.yul\":4589:5008   */\n    tag_40:\n        /* \"#utility.yul\":4755:4759   */\n      0x00\n        /* \"#utility.yul\":4793:4795   */\n      0x20\n        /* \"#utility.yul\":4782:4791   */\n      dup3\n        /* \"#utility.yul\":4778:4796   */\n      add\n        /* \"#utility.yul\":4770:4796   */\n      swap1\n      pop\n        /* \"#utility.yul\":4842:4851   */\n      dup2\n        /* \"#utility.yul\":4836:4840   */\n      dup2\n        /* \"#utility.yul\":4832:4852   */\n      sub\n        /* \"#utility.yul\":4828:4829   */\n      0x00\n        /* \"#utility.yul\":4817:4826   */\n      dup4\n        /* \"#utility.yul\":4813:4830   */\n      add\n        /* \"#utility.yul\":4806:4853   */\n      mstore\n        /* \"#utility.yul\":4870:5001   */\n      tag_112\n        /* \"#utility.yul\":4996:5000   */\n      dup2\n        /* \"#utility.yul\":4870:5001   */\n      tag_58\n      jump\t// in\n    tag_112:\n        /* \"#utility.yul\":4862:5001   */\n      swap1\n      pop\n        /* \"#utility.yul\":4589:5008   */\n      swap2\n      swap1\n      pop\n      jump\t// out\n\n    auxdata: 0xa26469706673582212207eed33daffe2a328779ebd105fc5b438ed5ef7e3809d89c5d193c5407091e7a064736f6c63430008160033\n}\n",
				"bytecode": {
					"linkReferences": {},
					"object": "608060405260325f55348015610013575f80fd5b5061052d806100215f395ff3fe608060405260043610610049575f3560e01c8063098de8201461004d5780630d8e6e2c1461007757806398d5fdca146100a1578063b60d4288146100cb578063f36089ec146100d5575b5f80fd5b348015610058575f80fd5b506100616100eb565b60405161006e9190610281565b60405180910390f35b348015610082575f80fd5b5061008b6100f0565b6040516100989190610281565b60405180910390f35b3480156100ac575f80fd5b506100b561017c565b6040516100c29190610281565b60405180910390f35b6100d3610221565b005b3480156100e0575f80fd5b506100e9610267565b005b5f5481565b5f8073694aa1769357215de4fac081bf1f309adc32530690508073ffffffffffffffffffffffffffffffffffffffff166354fd4d506040518163ffffffff1660e01b8152600401602060405180830381865afa158015610152573d5f803e3d5ffd5b505050506040513d601f19601f8201168201806040525081019061017691906102c8565b91505090565b5f8073694aa1769357215de4fac081bf1f309adc32530690505f8173ffffffffffffffffffffffffffffffffffffffff1663feaf968c6040518163ffffffff1660e01b815260040160a060405180830381865afa1580156101df573d5f803e3d5ffd5b505050506040513d601f19601f820116820180604052508101906102039190610365565b5050509150506402540be4008161021a9190610409565b9250505090565b5f54341015610265576040517f08c379a000000000000000000000000000000000000000000000000000000000815260040161025c906104d9565b60405180910390fd5b565b565b5f819050919050565b61027b81610269565b82525050565b5f6020820190506102945f830184610272565b92915050565b5f80fd5b6102a781610269565b81146102b1575f80fd5b50565b5f815190506102c28161029e565b92915050565b5f602082840312156102dd576102dc61029a565b5b5f6102ea848285016102b4565b91505092915050565b5f69ffffffffffffffffffff82169050919050565b610311816102f3565b811461031b575f80fd5b50565b5f8151905061032c81610308565b92915050565b5f819050919050565b61034481610332565b811461034e575f80fd5b50565b5f8151905061035f8161033b565b92915050565b5f805f805f60a0868803121561037e5761037d61029a565b5b5f61038b8882890161031e565b955050602061039c88828901610351565b94505060406103ad888289016102b4565b93505060606103be888289016102b4565b92505060806103cf8882890161031e565b9150509295509295909350565b7f4e487b71000000000000000000000000000000000000000000000000000000005f52601160045260245ffd5b5f61041382610332565b915061041e83610332565b925082820261042c81610332565b91507f800000000000000000000000000000000000000000000000000000000000000084145f84121615610463576104626103dc565b5b8282058414831517610478576104776103dc565b5b5092915050565b5f82825260208201905092915050565b7f4469646e27742073656e6420656e6f75676821000000000000000000000000005f82015250565b5f6104c360138361047f565b91506104ce8261048f565b602082019050919050565b5f6020820190508181035f8301526104f0816104b7565b905091905056fea26469706673582212207eed33daffe2a328779ebd105fc5b438ed5ef7e3809d89c5d193c5407091e7a064736f6c63430008160033",
					"opcodes": "PUSH1 0x80 PUSH1 0x40 MSTORE PUSH1 0x32 PUSH0 SSTORE CALLVALUE DUP1 ISZERO PUSH2 0x13 JUMPI PUSH0 DUP1 REVERT JUMPDEST POP PUSH2 0x52D DUP1 PUSH2 0x21 PUSH0 CODECOPY PUSH0 RETURN INVALID PUSH1 0x80 PUSH1 0x40 MSTORE PUSH1 0x4 CALLDATASIZE LT PUSH2 0x49 JUMPI PUSH0 CALLDATALOAD PUSH1 0xE0 SHR DUP1 PUSH4 0x98DE820 EQ PUSH2 0x4D JUMPI DUP1 PUSH4 0xD8E6E2C EQ PUSH2 0x77 JUMPI DUP1 PUSH4 0x98D5FDCA EQ PUSH2 0xA1 JUMPI DUP1 PUSH4 0xB60D4288 EQ PUSH2 0xCB JUMPI DUP1 PUSH4 0xF36089EC EQ PUSH2 0xD5 JUMPI JUMPDEST PUSH0 DUP1 REVERT JUMPDEST CALLVALUE DUP1 ISZERO PUSH2 0x58 JUMPI PUSH0 DUP1 REVERT JUMPDEST POP PUSH2 0x61 PUSH2 0xEB JUMP JUMPDEST PUSH1 0x40 MLOAD PUSH2 0x6E SWAP2 SWAP1 PUSH2 0x281 JUMP JUMPDEST PUSH1 0x40 MLOAD DUP1 SWAP2 SUB SWAP1 RETURN JUMPDEST CALLVALUE DUP1 ISZERO PUSH2 0x82 JUMPI PUSH0 DUP1 REVERT JUMPDEST POP PUSH2 0x8B PUSH2 0xF0 JUMP JUMPDEST PUSH1 0x40 MLOAD PUSH2 0x98 SWAP2 SWAP1 PUSH2 0x281 JUMP JUMPDEST PUSH1 0x40 MLOAD DUP1 SWAP2 SUB SWAP1 RETURN JUMPDEST CALLVALUE DUP1 ISZERO PUSH2 0xAC JUMPI PUSH0 DUP1 REVERT JUMPDEST POP PUSH2 0xB5 PUSH2 0x17C JUMP JUMPDEST PUSH1 0x40 MLOAD PUSH2 0xC2 SWAP2 SWAP1 PUSH2 0x281 JUMP JUMPDEST PUSH1 0x40 MLOAD DUP1 SWAP2 SUB SWAP1 RETURN JUMPDEST PUSH2 0xD3 PUSH2 0x221 JUMP JUMPDEST STOP JUMPDEST CALLVALUE DUP1 ISZERO PUSH2 0xE0 JUMPI PUSH0 DUP1 REVERT JUMPDEST POP PUSH2 0xE9 PUSH2 0x267 JUMP JUMPDEST STOP JUMPDEST PUSH0 SLOAD DUP2 JUMP JUMPDEST PUSH0 DUP1 PUSH20 0x694AA1769357215DE4FAC081BF1F309ADC325306 SWAP1 POP DUP1 PUSH20 0xFFFFFFFFFFFFFFFFFFFFFFFFFFFFFFFFFFFFFFFF AND PUSH4 0x54FD4D50 PUSH1 0x40 MLOAD DUP2 PUSH4 0xFFFFFFFF AND PUSH1 0xE0 SHL DUP2 MSTORE PUSH1 0x4 ADD PUSH1 0x20 PUSH1 0x40 MLOAD DUP1 DUP4 SUB DUP2 DUP7 GAS STATICCALL ISZERO DUP1 ISZERO PUSH2 0x152 JUMPI RETURNDATASIZE PUSH0 DUP1 RETURNDATACOPY RETURNDATASIZE PUSH0 REVERT JUMPDEST POP POP POP POP PUSH1 0x40 MLOAD RETURNDATASIZE PUSH1 0x1F NOT PUSH1 0x1F DUP3 ADD AND DUP3 ADD DUP1 PUSH1 0x40 MSTORE POP DUP2 ADD SWAP1 PUSH2 0x176 SWAP2 SWAP1 PUSH2 0x2C8 JUMP JUMPDEST SWAP2 POP POP SWAP1 JUMP JUMPDEST PUSH0 DUP1 PUSH20 0x694AA1769357215DE4FAC081BF1F309ADC325306 SWAP1 POP PUSH0 DUP2 PUSH20 0xFFFFFFFFFFFFFFFFFFFFFFFFFFFFFFFFFFFFFFFF AND PUSH4 0xFEAF968C PUSH1 0x40 MLOAD DUP2 PUSH4 0xFFFFFFFF AND PUSH1 0xE0 SHL DUP2 MSTORE PUSH1 0x4 ADD PUSH1 0xA0 PUSH1 0x40 MLOAD DUP1 DUP4 SUB DUP2 DUP7 GAS STATICCALL ISZERO DUP1 ISZERO PUSH2 0x1DF JUMPI RETURNDATASIZE PUSH0 DUP1 RETURNDATACOPY RETURNDATASIZE PUSH0 REVERT JUMPDEST POP POP POP POP PUSH1 0x40 MLOAD RETURNDATASIZE PUSH1 0x1F NOT PUSH1 0x1F DUP3 ADD AND DUP3 ADD DUP1 PUSH1 0x40 MSTORE POP DUP2 ADD SWAP1 PUSH2 0x203 SWAP2 SWAP1 PUSH2 0x365 JUMP JUMPDEST POP POP POP SWAP2 POP POP PUSH5 0x2540BE400 DUP2 PUSH2 0x21A SWAP2 SWAP1 PUSH2 0x409 JUMP JUMPDEST SWAP3 POP POP POP SWAP1 JUMP JUMPDEST PUSH0 SLOAD CALLVALUE LT ISZERO PUSH2 0x265 JUMPI PUSH1 0x40 MLOAD PUSH32 0x8C379A000000000000000000000000000000000000000000000000000000000 DUP2 MSTORE PUSH1 0x4 ADD PUSH2 0x25C SWAP1 PUSH2 0x4D9 JUMP JUMPDEST PUSH1 0x40 MLOAD DUP1 SWAP2 SUB SWAP1 REVERT JUMPDEST JUMP JUMPDEST JUMP JUMPDEST PUSH0 DUP2 SWAP1 POP SWAP2 SWAP1 POP JUMP JUMPDEST PUSH2 0x27B DUP2 PUSH2 0x269 JUMP JUMPDEST DUP3 MSTORE POP POP JUMP JUMPDEST PUSH0 PUSH1 0x20 DUP3 ADD SWAP1 POP PUSH2 0x294 PUSH0 DUP4 ADD DUP5 PUSH2 0x272 JUMP JUMPDEST SWAP3 SWAP2 POP POP JUMP JUMPDEST PUSH0 DUP1 REVERT JUMPDEST PUSH2 0x2A7 DUP2 PUSH2 0x269 JUMP JUMPDEST DUP2 EQ PUSH2 0x2B1 JUMPI PUSH0 DUP1 REVERT JUMPDEST POP JUMP JUMPDEST PUSH0 DUP2 MLOAD SWAP1 POP PUSH2 0x2C2 DUP2 PUSH2 0x29E JUMP JUMPDEST SWAP3 SWAP2 POP POP JUMP JUMPDEST PUSH0 PUSH1 0x20 DUP3 DUP5 SUB SLT ISZERO PUSH2 0x2DD JUMPI PUSH2 0x2DC PUSH2 0x29A JUMP JUMPDEST JUMPDEST PUSH0 PUSH2 0x2EA DUP5 DUP3 DUP6 ADD PUSH2 0x2B4 JUMP JUMPDEST SWAP2 POP POP SWAP3 SWAP2 POP POP JUMP JUMPDEST PUSH0 PUSH10 0xFFFFFFFFFFFFFFFFFFFF DUP3 AND SWAP1 POP SWAP2 SWAP1 POP JUMP JUMPDEST PUSH2 0x311 DUP2 PUSH2 0x2F3 JUMP JUMPDEST DUP2 EQ PUSH2 0x31B JUMPI PUSH0 DUP1 REVERT JUMPDEST POP JUMP JUMPDEST PUSH0 DUP2 MLOAD SWAP1 POP PUSH2 0x32C DUP2 PUSH2 0x308 JUMP JUMPDEST SWAP3 SWAP2 POP POP JUMP JUMPDEST PUSH0 DUP2 SWAP1 POP SWAP2 SWAP1 POP JUMP JUMPDEST PUSH2 0x344 DUP2 PUSH2 0x332 JUMP JUMPDEST DUP2 EQ PUSH2 0x34E JUMPI PUSH0 DUP1 REVERT JUMPDEST POP JUMP JUMPDEST PUSH0 DUP2 MLOAD SWAP1 POP PUSH2 0x35F DUP2 PUSH2 0x33B JUMP JUMPDEST SWAP3 SWAP2 POP POP JUMP JUMPDEST PUSH0 DUP1 PUSH0 DUP1 PUSH0 PUSH1 0xA0 DUP7 DUP9 SUB SLT ISZERO PUSH2 0x37E JUMPI PUSH2 0x37D PUSH2 0x29A JUMP JUMPDEST JUMPDEST PUSH0 PUSH2 0x38B DUP9 DUP3 DUP10 ADD PUSH2 0x31E JUMP JUMPDEST SWAP6 POP POP PUSH1 0x20 PUSH2 0x39C DUP9 DUP3 DUP10 ADD PUSH2 0x351 JUMP JUMPDEST SWAP5 POP POP PUSH1 0x40 PUSH2 0x3AD DUP9 DUP3 DUP10 ADD PUSH2 0x2B4 JUMP JUMPDEST SWAP4 POP POP PUSH1 0x60 PUSH2 0x3BE DUP9 DUP3 DUP10 ADD PUSH2 0x2B4 JUMP JUMPDEST SWAP3 POP POP PUSH1 0x80 PUSH2 0x3CF DUP9 DUP3 DUP10 ADD PUSH2 0x31E JUMP JUMPDEST SWAP2 POP POP SWAP3 SWAP6 POP SWAP3 SWAP6 SWAP1 SWAP4 POP JUMP JUMPDEST PUSH32 0x4E487B7100000000000000000000000000000000000000000000000000000000 PUSH0 MSTORE PUSH1 0x11 PUSH1 0x4 MSTORE PUSH1 0x24 PUSH0 REVERT JUMPDEST PUSH0 PUSH2 0x413 DUP3 PUSH2 0x332 JUMP JUMPDEST SWAP2 POP PUSH2 0x41E DUP4 PUSH2 0x332 JUMP JUMPDEST SWAP3 POP DUP3 DUP3 MUL PUSH2 0x42C DUP2 PUSH2 0x332 JUMP JUMPDEST SWAP2 POP PUSH32 0x8000000000000000000000000000000000000000000000000000000000000000 DUP5 EQ PUSH0 DUP5 SLT AND ISZERO PUSH2 0x463 JUMPI PUSH2 0x462 PUSH2 0x3DC JUMP JUMPDEST JUMPDEST DUP3 DUP3 SDIV DUP5 EQ DUP4 ISZERO OR PUSH2 0x478 JUMPI PUSH2 0x477 PUSH2 0x3DC JUMP JUMPDEST JUMPDEST POP SWAP3 SWAP2 POP POP JUMP JUMPDEST PUSH0 DUP3 DUP3 MSTORE PUSH1 0x20 DUP3 ADD SWAP1 POP SWAP3 SWAP2 POP POP JUMP JUMPDEST PUSH32 0x4469646E27742073656E6420656E6F7567682100000000000000000000000000 PUSH0 DUP3 ADD MSTORE POP JUMP JUMPDEST PUSH0 PUSH2 0x4C3 PUSH1 0x13 DUP4 PUSH2 0x47F JUMP JUMPDEST SWAP2 POP PUSH2 0x4CE DUP3 PUSH2 0x48F JUMP JUMPDEST PUSH1 0x20 DUP3 ADD SWAP1 POP SWAP2 SWAP1 POP JUMP JUMPDEST PUSH0 PUSH1 0x20 DUP3 ADD SWAP1 POP DUP2 DUP2 SUB PUSH0 DUP4 ADD MSTORE PUSH2 0x4F0 DUP2 PUSH2 0x4B7 JUMP JUMPDEST SWAP1 POP SWAP2 SWAP1 POP JUMP INVALID LOG2 PUSH5 0x6970667358 0x22 SLT KECCAK256 PUSH31 0xED33DAFFE2A328779EBD105FC5B438ED5EF7E3809D89C5D193C5407091E7A0 PUSH5 0x736F6C6343 STOP ADDMOD AND STOP CALLER "
				},
				"gasEstimates": {
					"creation": {
						"codeDepositCost": "265000",
						"executionCost": "22409",
						"totalCost": "287409"
					},
					"external": {
						"fund()": "2571",
						"getConversionRate()": "209",
						"getPrice()": "infinite",
						"getVersion()": "infinite",
						"minimumUsd()": "2402"
					}
				},
				"methodIdentifiers": {
					"fund()": "b60d4288",
					"getConversionRate()": "f36089ec",
					"getPrice()": "98d5fdca",
					"getVersion()": "0d8e6e2c",
					"minimumUsd()": "098de820"
				}
			},
			"storageLayout": {
				"storage": [
					{
						"astId": 51,
						"contract": "contracts/FundMe.sol:FundMe",
						"label": "minimumUsd",
						"offset": 0,
						"slot": "0",
						"type": "t_uint256"
					}
				],
				"types": {
					"t_uint256": {
						"encoding": "inplace",
						"label": "uint256",
						"numberOfBytes": "32"
					}
				}
			},
			"userdoc": {
				"kind": "user",
				"methods": {},
				"version": 1
			}
		}
	}
}